{
  "_format": "hh-sol-artifact-1",
  "contractName": "YieldSyncV1Vault",
  "sourceName": "contracts/YieldSyncV1Vault.sol",
  "abi": [
    {
      "inputs": [
        {
          "internalType": "address",
          "name": "_yieldSyncV1VaultRecord",
          "type": "address"
        },
        {
          "internalType": "address[]",
          "name": "admins",
          "type": "address[]"
        },
        {
          "internalType": "address[]",
          "name": "members",
          "type": "address[]"
        },
        {
          "internalType": "address",
          "name": "_signatureManager",
          "type": "address"
        },
        {
          "internalType": "uint256",
          "name": "_againstVoteCountRequired",
          "type": "uint256"
        },
        {
          "internalType": "uint256",
          "name": "_forVoteCountRequired",
          "type": "uint256"
        },
        {
          "internalType": "uint256",
          "name": "_withdrawalDelaySeconds",
          "type": "uint256"
        }
      ],
      "stateMutability": "nonpayable",
      "type": "constructor"
    },
    {
      "anonymous": false,
      "inputs": [
        {
          "indexed": false,
          "internalType": "uint256",
          "name": "withdrawalRequestId",
          "type": "uint256"
        }
      ],
      "name": "CreatedWithdrawalRequest",
      "type": "event"
    },
    {
      "anonymous": false,
      "inputs": [
        {
          "indexed": false,
          "internalType": "uint256",
          "name": "withdrawalRequestId",
          "type": "uint256"
        }
      ],
      "name": "DeletedWithdrawalRequest",
      "type": "event"
    },
    {
      "anonymous": false,
      "inputs": [
        {
          "indexed": false,
          "internalType": "uint256",
          "name": "withdrawalRequestId",
          "type": "uint256"
        },
        {
          "indexed": true,
          "internalType": "address",
          "name": "member",
          "type": "address"
        },
        {
          "indexed": false,
          "internalType": "bool",
          "name": "vote",
          "type": "bool"
        }
      ],
      "name": "MemberVoted",
      "type": "event"
    },
    {
      "anonymous": false,
      "inputs": [
        {
          "indexed": true,
          "internalType": "address",
          "name": "withdrawer",
          "type": "address"
        },
        {
          "indexed": true,
          "internalType": "address",
          "name": "token",
          "type": "address"
        },
        {
          "indexed": false,
          "internalType": "uint256",
          "name": "amount",
          "type": "uint256"
        }
      ],
      "name": "TokensWithdrawn",
      "type": "event"
    },
    {
      "anonymous": false,
      "inputs": [
        {
          "indexed": false,
          "internalType": "uint256",
          "name": "againstVoteCountRequired",
          "type": "uint256"
        }
      ],
      "name": "UpdatedAgainstVoteCountRequired",
      "type": "event"
    },
    {
      "anonymous": false,
      "inputs": [
        {
          "indexed": false,
          "internalType": "uint256",
          "name": "forVoteCountRequired",
          "type": "uint256"
        }
      ],
      "name": "UpdatedForVoteCountRequired",
      "type": "event"
    },
    {
      "anonymous": false,
      "inputs": [
        {
          "indexed": false,
          "internalType": "address",
          "name": "signatureManager",
          "type": "address"
        }
      ],
      "name": "UpdatedSignatureManger",
      "type": "event"
    },
    {
      "anonymous": false,
      "inputs": [
        {
          "indexed": false,
          "internalType": "uint256",
          "name": "withdrawalDelaySeconds",
          "type": "uint256"
        }
      ],
      "name": "UpdatedWithdrawalDelaySeconds",
      "type": "event"
    },
    {
      "anonymous": false,
      "inputs": [
        {
          "components": [
            {
              "internalType": "bool",
              "name": "forEther",
              "type": "bool"
            },
            {
              "internalType": "bool",
              "name": "forERC20",
              "type": "bool"
            },
            {
              "internalType": "bool",
              "name": "forERC721",
              "type": "bool"
            },
            {
              "internalType": "address",
              "name": "creator",
              "type": "address"
            },
            {
              "internalType": "address",
              "name": "to",
              "type": "address"
            },
            {
              "internalType": "address",
              "name": "token",
              "type": "address"
            },
            {
              "internalType": "uint256",
              "name": "amount",
              "type": "uint256"
            },
            {
              "internalType": "uint256",
              "name": "tokenId",
              "type": "uint256"
            },
            {
              "internalType": "uint256",
              "name": "forVoteCount",
              "type": "uint256"
            },
            {
              "internalType": "uint256",
              "name": "againstVoteCount",
              "type": "uint256"
            },
            {
              "internalType": "uint256",
              "name": "latestRelevantApproveVoteTime",
              "type": "uint256"
            },
            {
              "internalType": "address[]",
              "name": "votedMembers",
              "type": "address[]"
            }
          ],
          "indexed": false,
          "internalType": "struct WithdrawalRequest",
          "name": "withdrawalRequest",
          "type": "tuple"
        }
      ],
      "name": "UpdatedWithdrawalRequest",
      "type": "event"
    },
    {
      "anonymous": false,
      "inputs": [
        {
          "indexed": false,
          "internalType": "uint256",
          "name": "withdrawalRequestId",
          "type": "uint256"
        }
      ],
      "name": "WithdrawalRequestReadyToBeProcessed",
      "type": "event"
    },
    {
      "stateMutability": "payable",
      "type": "fallback"
    },
    {
      "inputs": [
        {
          "internalType": "address",
          "name": "targetAddress",
          "type": "address"
        }
      ],
      "name": "addAdmin",
      "outputs": [],
      "stateMutability": "nonpayable",
      "type": "function"
    },
    {
      "inputs": [
        {
          "internalType": "address",
          "name": "targetAddress",
          "type": "address"
        }
      ],
      "name": "addMember",
      "outputs": [],
      "stateMutability": "nonpayable",
      "type": "function"
    },
    {
      "inputs": [],
      "name": "againstVoteCountRequired",
      "outputs": [
        {
          "internalType": "uint256",
          "name": "",
          "type": "uint256"
        }
      ],
      "stateMutability": "view",
      "type": "function"
    },
    {
      "inputs": [
        {
          "internalType": "bool",
          "name": "forEther",
          "type": "bool"
        },
        {
          "internalType": "bool",
          "name": "forERC20",
          "type": "bool"
        },
        {
          "internalType": "bool",
          "name": "forERC721",
          "type": "bool"
        },
        {
          "internalType": "address",
          "name": "to",
          "type": "address"
        },
        {
          "internalType": "address",
          "name": "tokenAddress",
          "type": "address"
        },
        {
          "internalType": "uint256",
          "name": "amount",
          "type": "uint256"
        },
        {
          "internalType": "uint256",
          "name": "tokenId",
          "type": "uint256"
        }
      ],
      "name": "createWithdrawalRequest",
      "outputs": [],
      "stateMutability": "nonpayable",
      "type": "function"
    },
    {
      "inputs": [
        {
          "internalType": "uint256",
          "name": "withdrawalRequestId",
          "type": "uint256"
        }
      ],
      "name": "deleteWithdrawalRequest",
      "outputs": [],
      "stateMutability": "nonpayable",
      "type": "function"
    },
    {
      "inputs": [],
      "name": "forVoteCountRequired",
      "outputs": [
        {
          "internalType": "uint256",
          "name": "",
          "type": "uint256"
        }
      ],
      "stateMutability": "view",
      "type": "function"
    },
    {
      "inputs": [],
      "name": "idsOfOpenWithdrawalRequests",
      "outputs": [
        {
          "internalType": "uint256[]",
          "name": "",
          "type": "uint256[]"
        }
      ],
      "stateMutability": "view",
      "type": "function"
    },
    {
      "inputs": [
        {
          "internalType": "bytes32",
          "name": "_messageHash",
          "type": "bytes32"
        },
        {
          "internalType": "bytes",
          "name": "_signature",
          "type": "bytes"
        }
      ],
      "name": "isValidSignature",
      "outputs": [
        {
          "internalType": "bytes4",
          "name": "magicValue",
          "type": "bytes4"
        }
      ],
      "stateMutability": "view",
      "type": "function"
    },
    {
      "inputs": [
        {
          "internalType": "uint256",
          "name": "withdrawalRequestId",
          "type": "uint256"
        }
      ],
      "name": "processWithdrawalRequest",
      "outputs": [],
      "stateMutability": "nonpayable",
      "type": "function"
    },
    {
      "inputs": [
        {
          "internalType": "address",
          "name": "admin",
          "type": "address"
        }
      ],
      "name": "removeAdmin",
      "outputs": [],
      "stateMutability": "nonpayable",
      "type": "function"
    },
    {
      "inputs": [
        {
          "internalType": "address",
          "name": "member",
          "type": "address"
        }
      ],
      "name": "removeMember",
      "outputs": [],
      "stateMutability": "nonpayable",
      "type": "function"
    },
    {
      "inputs": [],
      "name": "signatureManager",
      "outputs": [
        {
          "internalType": "address",
          "name": "",
          "type": "address"
        }
      ],
      "stateMutability": "view",
      "type": "function"
    },
    {
      "inputs": [
        {
          "internalType": "uint256",
          "name": "_againstVoteCountRequired",
          "type": "uint256"
        }
      ],
      "name": "updateAgainstVoteCountRequired",
      "outputs": [],
      "stateMutability": "nonpayable",
      "type": "function"
    },
    {
      "inputs": [
        {
          "internalType": "uint256",
          "name": "_forVoteCountRequired",
          "type": "uint256"
        }
      ],
      "name": "updateForVoteCountRequired",
      "outputs": [],
      "stateMutability": "nonpayable",
      "type": "function"
    },
    {
      "inputs": [
        {
          "internalType": "address",
          "name": "_signatureManager",
          "type": "address"
        }
      ],
      "name": "updateSignatureManager",
      "outputs": [],
      "stateMutability": "nonpayable",
      "type": "function"
    },
    {
      "inputs": [
        {
          "internalType": "uint256",
          "name": "_withdrawalDelaySeconds",
          "type": "uint256"
        }
      ],
      "name": "updateWithdrawalDelaySeconds",
      "outputs": [],
      "stateMutability": "nonpayable",
      "type": "function"
    },
    {
      "inputs": [
        {
          "internalType": "uint256",
          "name": "withdrawalRequestId",
          "type": "uint256"
        },
        {
          "components": [
            {
              "internalType": "bool",
              "name": "forEther",
              "type": "bool"
            },
            {
              "internalType": "bool",
              "name": "forERC20",
              "type": "bool"
            },
            {
              "internalType": "bool",
              "name": "forERC721",
              "type": "bool"
            },
            {
              "internalType": "address",
              "name": "creator",
              "type": "address"
            },
            {
              "internalType": "address",
              "name": "to",
              "type": "address"
            },
            {
              "internalType": "address",
              "name": "token",
              "type": "address"
            },
            {
              "internalType": "uint256",
              "name": "amount",
              "type": "uint256"
            },
            {
              "internalType": "uint256",
              "name": "tokenId",
              "type": "uint256"
            },
            {
              "internalType": "uint256",
              "name": "forVoteCount",
              "type": "uint256"
            },
            {
              "internalType": "uint256",
              "name": "againstVoteCount",
              "type": "uint256"
            },
            {
              "internalType": "uint256",
              "name": "latestRelevantApproveVoteTime",
              "type": "uint256"
            },
            {
              "internalType": "address[]",
              "name": "votedMembers",
              "type": "address[]"
            }
          ],
          "internalType": "struct WithdrawalRequest",
          "name": "__withdrawalRequest",
          "type": "tuple"
        }
      ],
      "name": "updateWithdrawalRequest",
      "outputs": [],
      "stateMutability": "nonpayable",
      "type": "function"
    },
    {
      "inputs": [
        {
          "internalType": "uint256",
          "name": "withdrawalRequestId",
          "type": "uint256"
        },
        {
          "internalType": "bool",
          "name": "vote",
          "type": "bool"
        }
      ],
      "name": "voteOnWithdrawalRequest",
      "outputs": [],
      "stateMutability": "nonpayable",
      "type": "function"
    },
    {
      "inputs": [],
      "name": "withdrawalDelaySeconds",
      "outputs": [
        {
          "internalType": "uint256",
          "name": "",
          "type": "uint256"
        }
      ],
      "stateMutability": "view",
      "type": "function"
    },
    {
      "inputs": [
        {
          "internalType": "uint256",
          "name": "withdrawalRequestId",
          "type": "uint256"
        }
      ],
      "name": "withdrawalRequestId_withdralRequest",
      "outputs": [
        {
          "components": [
            {
              "internalType": "bool",
              "name": "forEther",
              "type": "bool"
            },
            {
              "internalType": "bool",
              "name": "forERC20",
              "type": "bool"
            },
            {
              "internalType": "bool",
              "name": "forERC721",
              "type": "bool"
            },
            {
              "internalType": "address",
              "name": "creator",
              "type": "address"
            },
            {
              "internalType": "address",
              "name": "to",
              "type": "address"
            },
            {
              "internalType": "address",
              "name": "token",
              "type": "address"
            },
            {
              "internalType": "uint256",
              "name": "amount",
              "type": "uint256"
            },
            {
              "internalType": "uint256",
              "name": "tokenId",
              "type": "uint256"
            },
            {
              "internalType": "uint256",
              "name": "forVoteCount",
              "type": "uint256"
            },
            {
              "internalType": "uint256",
              "name": "againstVoteCount",
              "type": "uint256"
            },
            {
              "internalType": "uint256",
              "name": "latestRelevantApproveVoteTime",
              "type": "uint256"
            },
            {
              "internalType": "address[]",
              "name": "votedMembers",
              "type": "address[]"
            }
          ],
          "internalType": "struct WithdrawalRequest",
          "name": "",
          "type": "tuple"
        }
      ],
      "stateMutability": "view",
      "type": "function"
    },
    {
      "inputs": [],
      "name": "yieldSyncV1VaultRecord",
      "outputs": [
        {
          "internalType": "address",
          "name": "",
          "type": "address"
        }
      ],
      "stateMutability": "view",
      "type": "function"
    },
    {
      "stateMutability": "payable",
      "type": "receive"
    }
  ],
  "bytecode": "0x60806040523480156200001157600080fd5b506040516200487a3803806200487a8339818101604052810190620000379190620004b5565b600082116200007d576040517f08c379a0000000000000000000000000000000000000000000000000000000008152600401620000749062000607565b60405180910390fd5b60005b86518110156200012e578773ffffffffffffffffffffffffffffffffffffffff16638a19b4d230898481518110620000bd57620000bc62000629565b5b60200260200101516040518363ffffffff1660e01b8152600401620000e492919062000669565b600060405180830381600087803b158015620000ff57600080fd5b505af115801562000114573d6000803e3d6000fd5b5050505080806200012590620006c5565b91505062000080565b5060005b8551811015620001e0578773ffffffffffffffffffffffffffffffffffffffff16639d58b15d308884815181106200016f576200016e62000629565b5b60200260200101516040518363ffffffff1660e01b81526004016200019692919062000669565b600060405180830381600087803b158015620001b157600080fd5b505af1158015620001c6573d6000803e3d6000fd5b505050508080620001d790620006c5565b91505062000132565b50866000806101000a81548173ffffffffffffffffffffffffffffffffffffffff021916908373ffffffffffffffffffffffffffffffffffffffff16021790555083600160006101000a81548173ffffffffffffffffffffffffffffffffffffffff021916908373ffffffffffffffffffffffffffffffffffffffff16021790555082600281905550816003819055508060048190555060006005819055505050505050505062000712565b6000604051905090565b600080fd5b600080fd5b600073ffffffffffffffffffffffffffffffffffffffff82169050919050565b6000620002cd82620002a0565b9050919050565b620002df81620002c0565b8114620002eb57600080fd5b50565b600081519050620002ff81620002d4565b92915050565b600080fd5b6000601f19601f8301169050919050565b7f4e487b7100000000000000000000000000000000000000000000000000000000600052604160045260246000fd5b62000355826200030a565b810181811067ffffffffffffffff821117156200037757620003766200031b565b5b80604052505050565b60006200038c6200028c565b90506200039a82826200034a565b919050565b600067ffffffffffffffff821115620003bd57620003bc6200031b565b5b602082029050602081019050919050565b600080fd5b6000620003ea620003e4846200039f565b62000380565b9050808382526020820190506020840283018581111562000410576200040f620003ce565b5b835b818110156200043d5780620004288882620002ee565b84526020840193505060208101905062000412565b5050509392505050565b600082601f8301126200045f576200045e62000305565b5b815162000471848260208601620003d3565b91505092915050565b6000819050919050565b6200048f816200047a565b81146200049b57600080fd5b50565b600081519050620004af8162000484565b92915050565b600080600080600080600060e0888a031215620004d757620004d662000296565b5b6000620004e78a828b01620002ee565b975050602088015167ffffffffffffffff8111156200050b576200050a6200029b565b5b620005198a828b0162000447565b965050604088015167ffffffffffffffff8111156200053d576200053c6200029b565b5b6200054b8a828b0162000447565b95505060606200055e8a828b01620002ee565b9450506080620005718a828b016200049e565b93505060a0620005848a828b016200049e565b92505060c0620005978a828b016200049e565b91505092959891949750929550565b600082825260208201905092915050565b7f215f666f72566f7465436f756e74526571756972656400000000000000000000600082015250565b6000620005ef601683620005a6565b9150620005fc82620005b7565b602082019050919050565b600060208201905081810360008301526200062281620005e0565b9050919050565b7f4e487b7100000000000000000000000000000000000000000000000000000000600052603260045260246000fd5b6200066381620002c0565b82525050565b600060408201905062000680600083018562000658565b6200068f602083018462000658565b9392505050565b7f4e487b7100000000000000000000000000000000000000000000000000000000600052601160045260246000fd5b6000620006d2826200047a565b91507fffffffffffffffffffffffffffffffffffffffffffffffffffffffffffffffff820362000707576200070662000696565b5b600182019050919050565b61415880620007226000396000f3fe60806040526004361061012e5760003560e01c806371839418116100ab578063cec2e5a21161006f578063cec2e5a2146103d0578063cf2061a6146103fb578063d238400414610424578063e06d97ba1461044d578063ed03a8a714610476578063ed543c4f1461049f57610135565b806371839418146102eb5780638c284df8146103165780639afc60211461033f578063c32e9e831461036a578063ca6d56dc146103a757610135565b80633318f9a3116100f25780633318f9a31461021a578063359c67921461024357806354befcfe1461026e5780635fd6d2d71461029957806370480275146102c257610135565b80630ad326c3146101375780630b1ca49a146101605780631626ba7e146101895780631785f53c146101c6578063198ff4d0146101ef57610135565b3661013557005b005b34801561014357600080fd5b5061015e60048036038101906101599190612e7d565b6104c8565b005b34801561016c57600080fd5b5061018760048036038101906101829190612f1b565b610944565b005b34801561019557600080fd5b506101b060048036038101906101ab91906130c4565b610ab6565b6040516101bd919061315b565b60405180910390f35b3480156101d257600080fd5b506101ed60048036038101906101e89190612f1b565b610b5e565b005b3480156101fb57600080fd5b50610204610cd0565b6040516102119190613185565b60405180910390f35b34801561022657600080fd5b50610241600480360381019061023c91906131a0565b610cf4565b005b34801561024f57600080fd5b50610258610e5d565b6040516102659190613185565b60405180910390f35b34801561027a57600080fd5b50610283610e83565b604051610290919061328b565b60405180910390f35b3480156102a557600080fd5b506102c060048036038101906102bb9190612f1b565b610edb565b005b3480156102ce57600080fd5b506102e960048036038101906102e49190612f1b565b61105a565b005b3480156102f757600080fd5b506103006111cc565b60405161030d91906132bc565b60405180910390f35b34801561032257600080fd5b5061033d600480360381019061033891906131a0565b6111d2565b005b34801561034b57600080fd5b506103546113b2565b60405161036191906132bc565b60405180910390f35b34801561037657600080fd5b50610391600480360381019061038c91906131a0565b6113b8565b60405161039e91906134a8565b60405180910390f35b3480156103b357600080fd5b506103ce60048036038101906103c99190612f1b565b6116b4565b005b3480156103dc57600080fd5b506103e5611826565b6040516103f291906132bc565b60405180910390f35b34801561040757600080fd5b50610422600480360381019061041d91906131a0565b61182c565b005b34801561043057600080fd5b5061044b600480360381019061044691906134ca565b611994565b005b34801561045957600080fd5b50610474600480360381019061046f91906131a0565b611d89565b005b34801561048257600080fd5b5061049d6004803603810190610498919061377c565b6125e2565b005b3480156104ab57600080fd5b506104c660048036038101906104c191906131a0565b612958565b005b60008060009054906101000a900473ffffffffffffffffffffffffffffffffffffffff1673ffffffffffffffffffffffffffffffffffffffff1663b56d7abb33306040518363ffffffff1660e01b81526004016105269291906137d8565b6040805180830381865afa158015610542573d6000803e3d6000fd5b505050506040513d601f19601f820116820180604052508101906105669190613816565b915050806105a9576040517f08c379a00000000000000000000000000000000000000000000000000000000081526004016105a0906138b3565b60405180910390fd5b826007600082815260200190815260200160002060000160009054906101000a900460ff16806105f957506007600082815260200190815260200160002060000160019054906101000a900460ff165b8061062457506007600082815260200190815260200160002060000160029054906101000a900460ff165b610663576040517f08c379a000000000000000000000000000000000000000000000000000000000815260040161065a9061391f565b60405180910390fd5b60005b600760008681526020019081526020016000206008018054905081101561075a573373ffffffffffffffffffffffffffffffffffffffff166007600087815260200190815260200160002060080182815481106106c6576106c561393f565b5b9060005260206000200160009054906101000a900473ffffffffffffffffffffffffffffffffffffffff1673ffffffffffffffffffffffffffffffffffffffff1603610747576040517f08c379a000000000000000000000000000000000000000000000000000000000815260040161073e906139ba565b60405180910390fd5b808061075290613a09565b915050610666565b5082156107925760076000858152602001908152602001600020600501600081548092919061078890613a09565b91905055506107bf565b6007600085815260200190815260200160002060060160008154809291906107b990613a09565b91905055505b60035460076000868152602001908152602001600020600501541015806107fe5750600254600760008681526020019081526020016000206006015410155b1561083b577f1110f4907359b0bd78694367ee61d5e756f8ed24a1708a1834702234a10b54c18460405161083291906132bc565b60405180910390a15b60076000858152602001908152602001600020600801339080600181540180825580915050600190039060005260206000200160009091909190916101000a81548173ffffffffffffffffffffffffffffffffffffffff021916908373ffffffffffffffffffffffffffffffffffffffff160217905550600354600760008681526020019081526020016000206005015410156108ee574260076000868152602001908152602001600020600701819055505b3373ffffffffffffffffffffffffffffffffffffffff167f42b220aa6e2bd94a0eff902301e1f3d45704fe4456174b8a8cefd06e4660f3068585604051610936929190613a60565b60405180910390a250505050565b60008060009054906101000a900473ffffffffffffffffffffffffffffffffffffffff1673ffffffffffffffffffffffffffffffffffffffff1663b56d7abb33306040518363ffffffff1660e01b81526004016109a29291906137d8565b6040805180830381865afa1580156109be573d6000803e3d6000fd5b505050506040513d601f19601f820116820180604052508101906109e29190613816565b50905080610a25576040517f08c379a0000000000000000000000000000000000000000000000000000000008152600401610a1c90613ad5565b60405180910390fd5b60008054906101000a900473ffffffffffffffffffffffffffffffffffffffff1673ffffffffffffffffffffffffffffffffffffffff1663e29b090430846040518363ffffffff1660e01b8152600401610a809291906137d8565b600060405180830381600087803b158015610a9a57600080fd5b505af1158015610aae573d6000803e3d6000fd5b505050505050565b6000600160009054906101000a900473ffffffffffffffffffffffffffffffffffffffff1673ffffffffffffffffffffffffffffffffffffffff16631626ba7e84846040518363ffffffff1660e01b8152600401610b15929190613b83565b602060405180830381865afa158015610b32573d6000803e3d6000fd5b505050506040513d601f19601f82011682018060405250810190610b569190613bdf565b905092915050565b60008060009054906101000a900473ffffffffffffffffffffffffffffffffffffffff1673ffffffffffffffffffffffffffffffffffffffff1663b56d7abb33306040518363ffffffff1660e01b8152600401610bbc9291906137d8565b6040805180830381865afa158015610bd8573d6000803e3d6000fd5b505050506040513d601f19601f82011682018060405250810190610bfc9190613816565b50905080610c3f576040517f08c379a0000000000000000000000000000000000000000000000000000000008152600401610c3690613ad5565b60405180910390fd5b60008054906101000a900473ffffffffffffffffffffffffffffffffffffffff1673ffffffffffffffffffffffffffffffffffffffff1663268959e530846040518363ffffffff1660e01b8152600401610c9a9291906137d8565b600060405180830381600087803b158015610cb457600080fd5b505af1158015610cc8573d6000803e3d6000fd5b505050505050565b60008054906101000a900473ffffffffffffffffffffffffffffffffffffffff1681565b60008060009054906101000a900473ffffffffffffffffffffffffffffffffffffffff1673ffffffffffffffffffffffffffffffffffffffff1663b56d7abb33306040518363ffffffff1660e01b8152600401610d529291906137d8565b6040805180830381865afa158015610d6e573d6000803e3d6000fd5b505050506040513d601f19601f82011682018060405250810190610d929190613816565b50905080610dd5576040517f08c379a0000000000000000000000000000000000000000000000000000000008152600401610dcc90613ad5565b60405180910390fd5b6000821015610e19576040517f08c379a0000000000000000000000000000000000000000000000000000000008152600401610e1090613c58565b60405180910390fd5b816004819055507f39863db11dc8eb2666ac42ebbedccc342e889b76e82f3ba8dc6e64f8a22ffef1600454604051610e5191906132bc565b60405180910390a15050565b600160009054906101000a900473ffffffffffffffffffffffffffffffffffffffff1681565b60606006805480602002602001604051908101604052809291908181526020018280548015610ed157602002820191906000526020600020905b815481526020019060010190808311610ebd575b5050505050905090565b60008060009054906101000a900473ffffffffffffffffffffffffffffffffffffffff1673ffffffffffffffffffffffffffffffffffffffff1663b56d7abb33306040518363ffffffff1660e01b8152600401610f399291906137d8565b6040805180830381865afa158015610f55573d6000803e3d6000fd5b505050506040513d601f19601f82011682018060405250810190610f799190613816565b50905080610fbc576040517f08c379a0000000000000000000000000000000000000000000000000000000008152600401610fb390613ad5565b60405180910390fd5b81600160006101000a81548173ffffffffffffffffffffffffffffffffffffffff021916908373ffffffffffffffffffffffffffffffffffffffff1602179055507f576065ee011092e1638839ca4f1e311edbed389e51412dae06deacf4ac6d9e25600160009054906101000a900473ffffffffffffffffffffffffffffffffffffffff1660405161104e9190613185565b60405180910390a15050565b60008060009054906101000a900473ffffffffffffffffffffffffffffffffffffffff1673ffffffffffffffffffffffffffffffffffffffff1663b56d7abb33306040518363ffffffff1660e01b81526004016110b89291906137d8565b6040805180830381865afa1580156110d4573d6000803e3d6000fd5b505050506040513d601f19601f820116820180604052508101906110f89190613816565b5090508061113b576040517f08c379a000000000000000000000000000000000000000000000000000000000815260040161113290613ad5565b60405180910390fd5b60008054906101000a900473ffffffffffffffffffffffffffffffffffffffff1673ffffffffffffffffffffffffffffffffffffffff16638a19b4d230846040518363ffffffff1660e01b81526004016111969291906137d8565b600060405180830381600087803b1580156111b057600080fd5b505af11580156111c4573d6000803e3d6000fd5b505050505050565b60045481565b60008060009054906101000a900473ffffffffffffffffffffffffffffffffffffffff1673ffffffffffffffffffffffffffffffffffffffff1663b56d7abb33306040518363ffffffff1660e01b81526004016112309291906137d8565b6040805180830381865afa15801561124c573d6000803e3d6000fd5b505050506040513d601f19601f820116820180604052508101906112709190613816565b509050806112b3576040517f08c379a00000000000000000000000000000000000000000000000000000000081526004016112aa90613ad5565b60405180910390fd5b816007600082815260200190815260200160002060000160009054906101000a900460ff168061130357506007600082815260200190815260200160002060000160019054906101000a900460ff165b8061132e57506007600082815260200190815260200160002060000160029054906101000a900460ff165b61136d576040517f08c379a00000000000000000000000000000000000000000000000000000000081526004016113649061391f565b60405180910390fd5b61137683612ac0565b7f814dee7ca22ccd3a9ea1f4163c48c2438cf8c755f6c75f9bde209549bc37decb836040516113a591906132bc565b60405180910390a1505050565b60025481565b6113c0612c8a565b816007600082815260200190815260200160002060000160009054906101000a900460ff168061141057506007600082815260200190815260200160002060000160019054906101000a900460ff165b8061143b57506007600082815260200190815260200160002060000160029054906101000a900460ff165b61147a576040517f08c379a00000000000000000000000000000000000000000000000000000000081526004016114719061391f565b60405180910390fd5b60076000848152602001908152602001600020604051806101800160405290816000820160009054906101000a900460ff161515151581526020016000820160019054906101000a900460ff161515151581526020016000820160029054906101000a900460ff161515151581526020016000820160039054906101000a900473ffffffffffffffffffffffffffffffffffffffff1673ffffffffffffffffffffffffffffffffffffffff1673ffffffffffffffffffffffffffffffffffffffff1681526020016001820160009054906101000a900473ffffffffffffffffffffffffffffffffffffffff1673ffffffffffffffffffffffffffffffffffffffff1673ffffffffffffffffffffffffffffffffffffffff1681526020016002820160009054906101000a900473ffffffffffffffffffffffffffffffffffffffff1673ffffffffffffffffffffffffffffffffffffffff1673ffffffffffffffffffffffffffffffffffffffff1681526020016003820154815260200160048201548152602001600582015481526020016006820154815260200160078201548152602001600882018054806020026020016040519081016040528092919081815260200182805480156116a357602002820191906000526020600020905b8160009054906101000a900473ffffffffffffffffffffffffffffffffffffffff1673ffffffffffffffffffffffffffffffffffffffff1681526020019060010190808311611659575b505050505081525050915050919050565b60008060009054906101000a900473ffffffffffffffffffffffffffffffffffffffff1673ffffffffffffffffffffffffffffffffffffffff1663b56d7abb33306040518363ffffffff1660e01b81526004016117129291906137d8565b6040805180830381865afa15801561172e573d6000803e3d6000fd5b505050506040513d601f19601f820116820180604052508101906117529190613816565b50905080611795576040517f08c379a000000000000000000000000000000000000000000000000000000000815260040161178c90613ad5565b60405180910390fd5b60008054906101000a900473ffffffffffffffffffffffffffffffffffffffff1673ffffffffffffffffffffffffffffffffffffffff16639d58b15d30846040518363ffffffff1660e01b81526004016117f09291906137d8565b600060405180830381600087803b15801561180a57600080fd5b505af115801561181e573d6000803e3d6000fd5b505050505050565b60035481565b60008060009054906101000a900473ffffffffffffffffffffffffffffffffffffffff1673ffffffffffffffffffffffffffffffffffffffff1663b56d7abb33306040518363ffffffff1660e01b815260040161188a9291906137d8565b6040805180830381865afa1580156118a6573d6000803e3d6000fd5b505050506040513d601f19601f820116820180604052508101906118ca9190613816565b5090508061190d576040517f08c379a000000000000000000000000000000000000000000000000000000000815260040161190490613ad5565b60405180910390fd5b60008211611950576040517f08c379a000000000000000000000000000000000000000000000000000000000815260040161194790613cc4565b60405180910390fd5b816003819055507ff0470d85ad02aeb2a53a78590ad917db164517a023dabc62506d3d40a58ad3c760035460405161198891906132bc565b60405180910390a15050565b60008060009054906101000a900473ffffffffffffffffffffffffffffffffffffffff1673ffffffffffffffffffffffffffffffffffffffff1663b56d7abb33306040518363ffffffff1660e01b81526004016119f29291906137d8565b6040805180830381865afa158015611a0e573d6000803e3d6000fd5b505050506040513d601f19601f82011682018060405250810190611a329190613816565b91505080611a75576040517f08c379a0000000000000000000000000000000000000000000000000000000008152600401611a6c906138b3565b60405180910390fd5b60008311611ab8576040517f08c379a0000000000000000000000000000000000000000000000000000000008152600401611aaf90613d30565b60405180910390fd5b60606040518061018001604052808a15158152602001891515815260200188151581526020013373ffffffffffffffffffffffffffffffffffffffff1681526020018773ffffffffffffffffffffffffffffffffffffffff1681526020018673ffffffffffffffffffffffffffffffffffffffff16815260200185815260200184815260200160008152602001600081526020014281526020018281525060076000600554815260200190815260200160002060008201518160000160006101000a81548160ff02191690831515021790555060208201518160000160016101000a81548160ff02191690831515021790555060408201518160000160026101000a81548160ff02191690831515021790555060608201518160000160036101000a81548173ffffffffffffffffffffffffffffffffffffffff021916908373ffffffffffffffffffffffffffffffffffffffff16021790555060808201518160010160006101000a81548173ffffffffffffffffffffffffffffffffffffffff021916908373ffffffffffffffffffffffffffffffffffffffff16021790555060a08201518160020160006101000a81548173ffffffffffffffffffffffffffffffffffffffff021916908373ffffffffffffffffffffffffffffffffffffffff16021790555060c0820151816003015560e08201518160040155610100820151816005015561012082015181600601556101408201518160070155610160820151816008019080519060200190611cf2929190612d33565b509050506006600554908060018154018082558091505060019003906000526020600020016000909190919091505560056000815480929190611d3490613a09565b91905055507f6788d571cec7cf5fc66326e0110dc360272339edc4fc69dc1935988f33372ca06001600554611d699190613d50565b604051611d7691906132bc565b60405180910390a1505050505050505050565b60008060009054906101000a900473ffffffffffffffffffffffffffffffffffffffff1673ffffffffffffffffffffffffffffffffffffffff1663b56d7abb33306040518363ffffffff1660e01b8152600401611de79291906137d8565b6040805180830381865afa158015611e03573d6000803e3d6000fd5b505050506040513d601f19601f82011682018060405250810190611e279190613816565b91505080611e6a576040517f08c379a0000000000000000000000000000000000000000000000000000000008152600401611e61906138b3565b60405180910390fd5b816007600082815260200190815260200160002060000160009054906101000a900460ff1680611eba57506007600082815260200190815260200160002060000160019054906101000a900460ff165b80611ee557506007600082815260200190815260200160002060000160029054906101000a900460ff165b611f24576040517f08c379a0000000000000000000000000000000000000000000000000000000008152600401611f1b9061391f565b60405180910390fd5b600060076000858152602001908152602001600020604051806101800160405290816000820160009054906101000a900460ff161515151581526020016000820160019054906101000a900460ff161515151581526020016000820160029054906101000a900460ff161515151581526020016000820160039054906101000a900473ffffffffffffffffffffffffffffffffffffffff1673ffffffffffffffffffffffffffffffffffffffff1673ffffffffffffffffffffffffffffffffffffffff1681526020016001820160009054906101000a900473ffffffffffffffffffffffffffffffffffffffff1673ffffffffffffffffffffffffffffffffffffffff1673ffffffffffffffffffffffffffffffffffffffff1681526020016002820160009054906101000a900473ffffffffffffffffffffffffffffffffffffffff1673ffffffffffffffffffffffffffffffffffffffff1673ffffffffffffffffffffffffffffffffffffffff16815260200160038201548152602001600482015481526020016005820154815260200160068201548152602001600782015481526020016008820180548060200260200160405190810160405280929190818152602001828054801561214f57602002820191906000526020600020905b8160009054906101000a900473ffffffffffffffffffffffffffffffffffffffff1673ffffffffffffffffffffffffffffffffffffffff1681526020019060010190808311612105575b5050505050815250509050600354816101000151101580612177575060025481610120015110155b6121b6576040517f08c379a00000000000000000000000000000000000000000000000000000000081526004016121ad90613df6565b60405180910390fd5b600354816101000151106125d35760016004546121d39190613e16565b816101400151426121e49190613d50565b1015612225576040517f08c379a000000000000000000000000000000000000000000000000000000000815260040161221c90613ea4565b60405180910390fd5b8060200151801561223857508060400151155b15612356578060c001518160a0015173ffffffffffffffffffffffffffffffffffffffff166370a08231306040518263ffffffff1660e01b815260040161227f9190613185565b602060405180830381865afa15801561229c573d6000803e3d6000fd5b505050506040513d601f19601f820116820180604052508101906122c09190613ed9565b10612351578060a0015173ffffffffffffffffffffffffffffffffffffffff1663a9059cbb82608001518360c001516040518363ffffffff1660e01b815260040161230c929190613f06565b6020604051808303816000875af115801561232b573d6000803e3d6000fd5b505050506040513d601f19601f8201168201806040525081019061234f9190613f2f565b505b612565565b8060400151801561236957508060200151155b156124a3573073ffffffffffffffffffffffffffffffffffffffff168160a0015173ffffffffffffffffffffffffffffffffffffffff16636352211e8360e001516040518263ffffffff1660e01b81526004016123c691906132bc565b602060405180830381865afa1580156123e3573d6000803e3d6000fd5b505050506040513d601f19601f820116820180604052508101906124079190613f71565b73ffffffffffffffffffffffffffffffffffffffff160361249e578060a0015173ffffffffffffffffffffffffffffffffffffffff166323b872dd3083608001518460e001516040518463ffffffff1660e01b815260040161246b93929190613f9e565b600060405180830381600087803b15801561248557600080fd5b505af1158015612499573d6000803e3d6000fd5b505050505b612564565b806000015115612563576000816080015173ffffffffffffffffffffffffffffffffffffffff168260c001516040516124db90614006565b60006040518083038185875af1925050503d8060008114612518576040519150601f19603f3d011682016040523d82523d6000602084013e61251d565b606091505b5050905080612561576040517f08c379a000000000000000000000000000000000000000000000000000000000815260040161255890614067565b60405180910390fd5b505b5b5b806080015173ffffffffffffffffffffffffffffffffffffffff163373ffffffffffffffffffffffffffffffffffffffff167f6337ed398c0e8467698c581374fdce4db14922df487b5a39483079f5f59b60a48360c001516040516125ca91906132bc565b60405180910390a35b6125dc84612ac0565b50505050565b60008060009054906101000a900473ffffffffffffffffffffffffffffffffffffffff1673ffffffffffffffffffffffffffffffffffffffff1663b56d7abb33306040518363ffffffff1660e01b81526004016126409291906137d8565b6040805180830381865afa15801561265c573d6000803e3d6000fd5b505050506040513d601f19601f820116820180604052508101906126809190613816565b509050806126c3576040517f08c379a00000000000000000000000000000000000000000000000000000000081526004016126ba90613ad5565b60405180910390fd5b826007600082815260200190815260200160002060000160009054906101000a900460ff168061271357506007600082815260200190815260200160002060000160019054906101000a900460ff165b8061273e57506007600082815260200190815260200160002060000160029054906101000a900460ff165b61277d576040517f08c379a00000000000000000000000000000000000000000000000000000000081526004016127749061391f565b60405180910390fd5b826007600086815260200190815260200160002060008201518160000160006101000a81548160ff02191690831515021790555060208201518160000160016101000a81548160ff02191690831515021790555060408201518160000160026101000a81548160ff02191690831515021790555060608201518160000160036101000a81548173ffffffffffffffffffffffffffffffffffffffff021916908373ffffffffffffffffffffffffffffffffffffffff16021790555060808201518160010160006101000a81548173ffffffffffffffffffffffffffffffffffffffff021916908373ffffffffffffffffffffffffffffffffffffffff16021790555060a08201518160020160006101000a81548173ffffffffffffffffffffffffffffffffffffffff021916908373ffffffffffffffffffffffffffffffffffffffff16021790555060c0820151816003015560e08201518160040155610100820151816005015561012082015181600601556101408201518160070155610160820151816008019080519060200190612918929190612d33565b509050507ea74f83ad7e185c191813e7ff2003583a0e2f369be105b11fcb0b862428b46f8360405161294a91906134a8565b60405180910390a150505050565b60008060009054906101000a900473ffffffffffffffffffffffffffffffffffffffff1673ffffffffffffffffffffffffffffffffffffffff1663b56d7abb33306040518363ffffffff1660e01b81526004016129b69291906137d8565b6040805180830381865afa1580156129d2573d6000803e3d6000fd5b505050506040513d601f19601f820116820180604052508101906129f69190613816565b50905080612a39576040517f08c379a0000000000000000000000000000000000000000000000000000000008152600401612a3090613ad5565b60405180910390fd5b60008211612a7c576040517f08c379a0000000000000000000000000000000000000000000000000000000008152600401612a73906140d3565b60405180910390fd5b816002819055507fe9e1db4ef9add872cf5f9c740938a57d79e8af5fac570627559dfb616d9c4238600254604051612ab491906132bc565b60405180910390a15050565b60076000828152602001908152602001600020600080820160006101000a81549060ff02191690556000820160016101000a81549060ff02191690556000820160026101000a81549060ff02191690556000820160036101000a81549073ffffffffffffffffffffffffffffffffffffffff02191690556001820160006101000a81549073ffffffffffffffffffffffffffffffffffffffff02191690556002820160006101000a81549073ffffffffffffffffffffffffffffffffffffffff021916905560038201600090556004820160009055600582016000905560068201600090556007820160009055600882016000612bbd9190612dbd565b505060005b600680549050811015612c86578160068281548110612be457612be361393f565b5b906000526020600020015403612c735760066001600680549050612c089190613d50565b81548110612c1957612c1861393f565b5b906000526020600020015460068281548110612c3857612c3761393f565b5b90600052602060002001819055506006805480612c5857612c576140f3565b5b60019003818190600052602060002001600090559055612c86565b8080612c7e90613a09565b915050612bc2565b5050565b604051806101800160405280600015158152602001600015158152602001600015158152602001600073ffffffffffffffffffffffffffffffffffffffff168152602001600073ffffffffffffffffffffffffffffffffffffffff168152602001600073ffffffffffffffffffffffffffffffffffffffff1681526020016000815260200160008152602001600081526020016000815260200160008152602001606081525090565b828054828255906000526020600020908101928215612dac579160200282015b82811115612dab5782518260006101000a81548173ffffffffffffffffffffffffffffffffffffffff021916908373ffffffffffffffffffffffffffffffffffffffff16021790555091602001919060010190612d53565b5b509050612db99190612dde565b5090565b5080546000825590600052602060002090810190612ddb9190612dde565b50565b5b80821115612df7576000816000905550600101612ddf565b5090565b6000604051905090565b600080fd5b600080fd5b6000819050919050565b612e2281612e0f565b8114612e2d57600080fd5b50565b600081359050612e3f81612e19565b92915050565b60008115159050919050565b612e5a81612e45565b8114612e6557600080fd5b50565b600081359050612e7781612e51565b92915050565b60008060408385031215612e9457612e93612e05565b5b6000612ea285828601612e30565b9250506020612eb385828601612e68565b9150509250929050565b600073ffffffffffffffffffffffffffffffffffffffff82169050919050565b6000612ee882612ebd565b9050919050565b612ef881612edd565b8114612f0357600080fd5b50565b600081359050612f1581612eef565b92915050565b600060208284031215612f3157612f30612e05565b5b6000612f3f84828501612f06565b91505092915050565b6000819050919050565b612f5b81612f48565b8114612f6657600080fd5b50565b600081359050612f7881612f52565b92915050565b600080fd5b600080fd5b6000601f19601f8301169050919050565b7f4e487b7100000000000000000000000000000000000000000000000000000000600052604160045260246000fd5b612fd182612f88565b810181811067ffffffffffffffff82111715612ff057612fef612f99565b5b80604052505050565b6000613003612dfb565b905061300f8282612fc8565b919050565b600067ffffffffffffffff82111561302f5761302e612f99565b5b61303882612f88565b9050602081019050919050565b82818337600083830152505050565b600061306761306284613014565b612ff9565b90508281526020810184848401111561308357613082612f83565b5b61308e848285613045565b509392505050565b600082601f8301126130ab576130aa612f7e565b5b81356130bb848260208601613054565b91505092915050565b600080604083850312156130db576130da612e05565b5b60006130e985828601612f69565b925050602083013567ffffffffffffffff81111561310a57613109612e0a565b5b61311685828601613096565b9150509250929050565b60007fffffffff0000000000000000000000000000000000000000000000000000000082169050919050565b61315581613120565b82525050565b6000602082019050613170600083018461314c565b92915050565b61317f81612edd565b82525050565b600060208201905061319a6000830184613176565b92915050565b6000602082840312156131b6576131b5612e05565b5b60006131c484828501612e30565b91505092915050565b600081519050919050565b600082825260208201905092915050565b6000819050602082019050919050565b61320281612e0f565b82525050565b600061321483836131f9565b60208301905092915050565b6000602082019050919050565b6000613238826131cd565b61324281856131d8565b935061324d836131e9565b8060005b8381101561327e5781516132658882613208565b975061327083613220565b925050600181019050613251565b5085935050505092915050565b600060208201905081810360008301526132a5818461322d565b905092915050565b6132b681612e0f565b82525050565b60006020820190506132d160008301846132ad565b92915050565b6132e081612e45565b82525050565b6132ef81612edd565b82525050565b600081519050919050565b600082825260208201905092915050565b6000819050602082019050919050565b600061332d83836132e6565b60208301905092915050565b6000602082019050919050565b6000613351826132f5565b61335b8185613300565b935061336683613311565b8060005b8381101561339757815161337e8882613321565b975061338983613339565b92505060018101905061336a565b5085935050505092915050565b6000610180830160008301516133bd60008601826132d7565b5060208301516133d060208601826132d7565b5060408301516133e360408601826132d7565b5060608301516133f660608601826132e6565b50608083015161340960808601826132e6565b5060a083015161341c60a08601826132e6565b5060c083015161342f60c08601826131f9565b5060e083015161344260e08601826131f9565b506101008301516134576101008601826131f9565b5061012083015161346c6101208601826131f9565b506101408301516134816101408601826131f9565b5061016083015184820361016086015261349b8282613346565b9150508091505092915050565b600060208201905081810360008301526134c281846133a4565b905092915050565b600080600080600080600060e0888a0312156134e9576134e8612e05565b5b60006134f78a828b01612e68565b97505060206135088a828b01612e68565b96505060406135198a828b01612e68565b955050606061352a8a828b01612f06565b945050608061353b8a828b01612f06565b93505060a061354c8a828b01612e30565b92505060c061355d8a828b01612e30565b91505092959891949750929550565b600080fd5b600080fd5b600067ffffffffffffffff82111561359157613590612f99565b5b602082029050602081019050919050565b600080fd5b60006135ba6135b584613576565b612ff9565b905080838252602082019050602084028301858111156135dd576135dc6135a2565b5b835b8181101561360657806135f28882612f06565b8452602084019350506020810190506135df565b5050509392505050565b600082601f83011261362557613624612f7e565b5b81356136358482602086016135a7565b91505092915050565b600061018082840312156136555761365461356c565b5b613660610180612ff9565b9050600061367084828501612e68565b600083015250602061368484828501612e68565b602083015250604061369884828501612e68565b60408301525060606136ac84828501612f06565b60608301525060806136c084828501612f06565b60808301525060a06136d484828501612f06565b60a08301525060c06136e884828501612e30565b60c08301525060e06136fc84828501612e30565b60e08301525061010061371184828501612e30565b6101008301525061012061372784828501612e30565b6101208301525061014061373d84828501612e30565b6101408301525061016082013567ffffffffffffffff81111561376357613762613571565b5b61376f84828501613610565b6101608301525092915050565b6000806040838503121561379357613792612e05565b5b60006137a185828601612e30565b925050602083013567ffffffffffffffff8111156137c2576137c1612e0a565b5b6137ce8582860161363e565b9150509250929050565b60006040820190506137ed6000830185613176565b6137fa6020830184613176565b9392505050565b60008151905061381081612e51565b92915050565b6000806040838503121561382d5761382c612e05565b5b600061383b85828601613801565b925050602061384c85828601613801565b9150509250929050565b600082825260208201905092915050565b7f216d656d62657200000000000000000000000000000000000000000000000000600082015250565b600061389d600783613856565b91506138a882613867565b602082019050919050565b600060208201905081810360008301526138cc81613890565b9050919050565b7f4e6f205769746864726177616c5265717565737420666f756e64000000000000600082015250565b6000613909601a83613856565b9150613914826138d3565b602082019050919050565b60006020820190508181036000830152613938816138fc565b9050919050565b7f4e487b7100000000000000000000000000000000000000000000000000000000600052603260045260246000fd5b7f416c726561647920766f74656400000000000000000000000000000000000000600082015250565b60006139a4600d83613856565b91506139af8261396e565b602082019050919050565b600060208201905081810360008301526139d381613997565b9050919050565b7f4e487b7100000000000000000000000000000000000000000000000000000000600052601160045260246000fd5b6000613a1482612e0f565b91507fffffffffffffffffffffffffffffffffffffffffffffffffffffffffffffffff8203613a4657613a456139da565b5b600182019050919050565b613a5a81612e45565b82525050565b6000604082019050613a7560008301856132ad565b613a826020830184613a51565b9392505050565b7f2161646d696e0000000000000000000000000000000000000000000000000000600082015250565b6000613abf600683613856565b9150613aca82613a89565b602082019050919050565b60006020820190508181036000830152613aee81613ab2565b9050919050565b613afe81612f48565b82525050565b600081519050919050565b600082825260208201905092915050565b60005b83811015613b3e578082015181840152602081019050613b23565b60008484015250505050565b6000613b5582613b04565b613b5f8185613b0f565b9350613b6f818560208601613b20565b613b7881612f88565b840191505092915050565b6000604082019050613b986000830185613af5565b8181036020830152613baa8184613b4a565b90509392505050565b613bbc81613120565b8114613bc757600080fd5b50565b600081519050613bd981613bb3565b92915050565b600060208284031215613bf557613bf4612e05565b5b6000613c0384828501613bca565b91505092915050565b7f215f7769746864726177616c44656c61795365636f6e64730000000000000000600082015250565b6000613c42601883613856565b9150613c4d82613c0c565b602082019050919050565b60006020820190508181036000830152613c7181613c35565b9050919050565b7f215f666f72566f7465436f756e74526571756972656400000000000000000000600082015250565b6000613cae601683613856565b9150613cb982613c78565b602082019050919050565b60006020820190508181036000830152613cdd81613ca1565b9050919050565b7f21616d6f756e7400000000000000000000000000000000000000000000000000600082015250565b6000613d1a600783613856565b9150613d2582613ce4565b602082019050919050565b60006020820190508181036000830152613d4981613d0d565b9050919050565b6000613d5b82612e0f565b9150613d6683612e0f565b9250828203905081811115613d7e57613d7d6139da565b5b92915050565b7f21666f72566f7465436f756e7452657175697265642026262021616761696e7360008201527f74566f7465436f756e7400000000000000000000000000000000000000000000602082015250565b6000613de0602a83613856565b9150613deb82613d84565b604082019050919050565b60006020820190508181036000830152613e0f81613dd3565b9050919050565b6000613e2182612e0f565b9150613e2c83612e0f565b9250828202613e3a81612e0f565b91508282048414831517613e5157613e506139da565b5b5092915050565b7f4e6f7420656e6f7567682074696d652068617320706173736564000000000000600082015250565b6000613e8e601a83613856565b9150613e9982613e58565b602082019050919050565b60006020820190508181036000830152613ebd81613e81565b9050919050565b600081519050613ed381612e19565b92915050565b600060208284031215613eef57613eee612e05565b5b6000613efd84828501613ec4565b91505092915050565b6000604082019050613f1b6000830185613176565b613f2860208301846132ad565b9392505050565b600060208284031215613f4557613f44612e05565b5b6000613f5384828501613801565b91505092915050565b600081519050613f6b81612eef565b92915050565b600060208284031215613f8757613f86612e05565b5b6000613f9584828501613f5c565b91505092915050565b6000606082019050613fb36000830186613176565b613fc06020830185613176565b613fcd60408301846132ad565b949350505050565b600081905092915050565b50565b6000613ff0600083613fd5565b9150613ffb82613fe0565b600082019050919050565b600061401182613fe3565b9150819050919050565b7f556e61626c6520746f2073656e642076616c7565000000000000000000000000600082015250565b6000614051601483613856565b915061405c8261401b565b602082019050919050565b6000602082019050818103600083015261408081614044565b9050919050565b7f215f616761696e7374566f7465436f756e745265717569726564000000000000600082015250565b60006140bd601a83613856565b91506140c882614087565b602082019050919050565b600060208201905081810360008301526140ec816140b0565b9050919050565b7f4e487b7100000000000000000000000000000000000000000000000000000000600052603160045260246000fdfea2646970667358221220ed89b29fda656a7819f6201787d77d268c458eb70fa24da3786146ef88a1567a64736f6c63430008120033",
  "linkReferences": {},
  "deployedLinkReferences": {}
}