{
  "_format": "hh-sol-artifact-1",
  "contractName": "YieldSyncV1Vault",
  "sourceName": "contracts/YieldSyncV1Vault.sol",
  "abi": [
    {
      "inputs": [
        {
          "internalType": "address",
          "name": "_YieldSyncV1VaultRecord",
          "type": "address"
        },
        {
          "internalType": "address[]",
          "name": "admins",
          "type": "address[]"
        },
        {
          "internalType": "address[]",
          "name": "members",
          "type": "address[]"
        },
        {
          "internalType": "address",
          "name": "_signatureManager",
          "type": "address"
        },
        {
          "internalType": "uint256",
          "name": "_againstVoteCountRequired",
          "type": "uint256"
        },
        {
          "internalType": "uint256",
          "name": "_forVoteCountRequired",
          "type": "uint256"
        },
        {
          "internalType": "uint256",
          "name": "_withdrawalDelaySeconds",
          "type": "uint256"
        }
      ],
      "stateMutability": "nonpayable",
      "type": "constructor"
    },
    {
      "anonymous": false,
      "inputs": [
        {
          "indexed": false,
          "internalType": "uint256",
          "name": "withdrawalRequestId",
          "type": "uint256"
        }
      ],
      "name": "CreatedWithdrawalRequest",
      "type": "event"
    },
    {
      "anonymous": false,
      "inputs": [
        {
          "indexed": false,
          "internalType": "uint256",
          "name": "withdrawalRequestId",
          "type": "uint256"
        }
      ],
      "name": "DeletedWithdrawalRequest",
      "type": "event"
    },
    {
      "anonymous": false,
      "inputs": [
        {
          "indexed": false,
          "internalType": "uint256",
          "name": "withdrawalRequestId",
          "type": "uint256"
        },
        {
          "indexed": true,
          "internalType": "address",
          "name": "member",
          "type": "address"
        },
        {
          "indexed": false,
          "internalType": "bool",
          "name": "vote",
          "type": "bool"
        }
      ],
      "name": "MemberVoted",
      "type": "event"
    },
    {
      "anonymous": false,
      "inputs": [
        {
          "indexed": true,
          "internalType": "address",
          "name": "withdrawer",
          "type": "address"
        },
        {
          "indexed": true,
          "internalType": "address",
          "name": "token",
          "type": "address"
        },
        {
          "indexed": false,
          "internalType": "uint256",
          "name": "amount",
          "type": "uint256"
        }
      ],
      "name": "TokensWithdrawn",
      "type": "event"
    },
    {
      "anonymous": false,
      "inputs": [
        {
          "indexed": false,
          "internalType": "uint256",
          "name": "againstVoteCountRequired",
          "type": "uint256"
        }
      ],
      "name": "UpdatedAgainstVoteCountRequired",
      "type": "event"
    },
    {
      "anonymous": false,
      "inputs": [
        {
          "indexed": false,
          "internalType": "uint256",
          "name": "forVoteCountRequired",
          "type": "uint256"
        }
      ],
      "name": "UpdatedForVoteCountRequired",
      "type": "event"
    },
    {
      "anonymous": false,
      "inputs": [
        {
          "indexed": false,
          "internalType": "address",
          "name": "signatureManager",
          "type": "address"
        }
      ],
      "name": "UpdatedSignatureManger",
      "type": "event"
    },
    {
      "anonymous": false,
      "inputs": [
        {
          "indexed": false,
          "internalType": "uint256",
          "name": "withdrawalDelaySeconds",
          "type": "uint256"
        }
      ],
      "name": "UpdatedWithdrawalDelaySeconds",
      "type": "event"
    },
    {
      "anonymous": false,
      "inputs": [
        {
          "components": [
            {
              "internalType": "bool",
              "name": "forEther",
              "type": "bool"
            },
            {
              "internalType": "bool",
              "name": "forERC20",
              "type": "bool"
            },
            {
              "internalType": "bool",
              "name": "forERC721",
              "type": "bool"
            },
            {
              "internalType": "address",
              "name": "creator",
              "type": "address"
            },
            {
              "internalType": "address",
              "name": "to",
              "type": "address"
            },
            {
              "internalType": "address",
              "name": "token",
              "type": "address"
            },
            {
              "internalType": "uint256",
              "name": "amount",
              "type": "uint256"
            },
            {
              "internalType": "uint256",
              "name": "tokenId",
              "type": "uint256"
            },
            {
              "internalType": "uint256",
              "name": "forVoteCount",
              "type": "uint256"
            },
            {
              "internalType": "uint256",
              "name": "againstVoteCount",
              "type": "uint256"
            },
            {
              "internalType": "uint256",
              "name": "latestRelevantApproveVoteTime",
              "type": "uint256"
            },
            {
              "internalType": "address[]",
              "name": "votedMembers",
              "type": "address[]"
            }
          ],
          "indexed": false,
          "internalType": "struct WithdrawalRequest",
          "name": "withdrawalRequest",
          "type": "tuple"
        }
      ],
      "name": "UpdatedWithdrawalRequest",
      "type": "event"
    },
    {
      "anonymous": false,
      "inputs": [
        {
          "indexed": false,
          "internalType": "uint256",
          "name": "withdrawalRequestId",
          "type": "uint256"
        }
      ],
      "name": "WithdrawalRequestReadyToBeProcessed",
      "type": "event"
    },
    {
      "stateMutability": "payable",
      "type": "fallback"
    },
    {
      "inputs": [],
      "name": "YieldSyncV1VaultRecord",
      "outputs": [
        {
          "internalType": "address",
          "name": "",
          "type": "address"
        }
      ],
      "stateMutability": "view",
      "type": "function"
    },
    {
      "inputs": [
        {
          "internalType": "address",
          "name": "targetAddress",
          "type": "address"
        }
      ],
      "name": "addAdmin",
      "outputs": [],
      "stateMutability": "nonpayable",
      "type": "function"
    },
    {
      "inputs": [
        {
          "internalType": "address",
          "name": "targetAddress",
          "type": "address"
        }
      ],
      "name": "addMember",
      "outputs": [],
      "stateMutability": "nonpayable",
      "type": "function"
    },
    {
      "inputs": [],
      "name": "againstVoteCountRequired",
      "outputs": [
        {
          "internalType": "uint256",
          "name": "",
          "type": "uint256"
        }
      ],
      "stateMutability": "view",
      "type": "function"
    },
    {
      "inputs": [
        {
          "internalType": "bool",
          "name": "forEther",
          "type": "bool"
        },
        {
          "internalType": "bool",
          "name": "forERC20",
          "type": "bool"
        },
        {
          "internalType": "bool",
          "name": "forERC721",
          "type": "bool"
        },
        {
          "internalType": "address",
          "name": "to",
          "type": "address"
        },
        {
          "internalType": "address",
          "name": "tokenAddress",
          "type": "address"
        },
        {
          "internalType": "uint256",
          "name": "amount",
          "type": "uint256"
        },
        {
          "internalType": "uint256",
          "name": "tokenId",
          "type": "uint256"
        }
      ],
      "name": "createWithdrawalRequest",
      "outputs": [],
      "stateMutability": "nonpayable",
      "type": "function"
    },
    {
      "inputs": [
        {
          "internalType": "uint256",
          "name": "withdrawalRequestId",
          "type": "uint256"
        }
      ],
      "name": "deleteWithdrawalRequest",
      "outputs": [],
      "stateMutability": "nonpayable",
      "type": "function"
    },
    {
      "inputs": [],
      "name": "forVoteCountRequired",
      "outputs": [
        {
          "internalType": "uint256",
          "name": "",
          "type": "uint256"
        }
      ],
      "stateMutability": "view",
      "type": "function"
    },
    {
      "inputs": [],
      "name": "idsOfOpenWithdrawalRequests",
      "outputs": [
        {
          "internalType": "uint256[]",
          "name": "",
          "type": "uint256[]"
        }
      ],
      "stateMutability": "view",
      "type": "function"
    },
    {
      "inputs": [
        {
          "internalType": "bytes32",
          "name": "_messageHash",
          "type": "bytes32"
        },
        {
          "internalType": "bytes",
          "name": "_signature",
          "type": "bytes"
        }
      ],
      "name": "isValidSignature",
      "outputs": [
        {
          "internalType": "bytes4",
          "name": "magicValue",
          "type": "bytes4"
        }
      ],
      "stateMutability": "view",
      "type": "function"
    },
    {
      "inputs": [
        {
          "internalType": "uint256",
          "name": "withdrawalRequestId",
          "type": "uint256"
        }
      ],
      "name": "processWithdrawalRequest",
      "outputs": [],
      "stateMutability": "nonpayable",
      "type": "function"
    },
    {
      "inputs": [
        {
          "internalType": "address",
          "name": "admin",
          "type": "address"
        }
      ],
      "name": "removeAdmin",
      "outputs": [],
      "stateMutability": "nonpayable",
      "type": "function"
    },
    {
      "inputs": [
        {
          "internalType": "address",
          "name": "member",
          "type": "address"
        }
      ],
      "name": "removeMember",
      "outputs": [],
      "stateMutability": "nonpayable",
      "type": "function"
    },
    {
      "inputs": [],
      "name": "signatureManager",
      "outputs": [
        {
          "internalType": "address",
          "name": "",
          "type": "address"
        }
      ],
      "stateMutability": "view",
      "type": "function"
    },
    {
      "inputs": [
        {
          "internalType": "uint256",
          "name": "_againstVoteCountRequired",
          "type": "uint256"
        }
      ],
      "name": "updateAgainstVoteCountRequired",
      "outputs": [],
      "stateMutability": "nonpayable",
      "type": "function"
    },
    {
      "inputs": [
        {
          "internalType": "uint256",
          "name": "_forVoteCountRequired",
          "type": "uint256"
        }
      ],
      "name": "updateForVoteCountRequired",
      "outputs": [],
      "stateMutability": "nonpayable",
      "type": "function"
    },
    {
      "inputs": [
        {
          "internalType": "address",
          "name": "_signatureManager",
          "type": "address"
        }
      ],
      "name": "updateSignatureManager",
      "outputs": [],
      "stateMutability": "nonpayable",
      "type": "function"
    },
    {
      "inputs": [
        {
          "internalType": "uint256",
          "name": "_withdrawalDelaySeconds",
          "type": "uint256"
        }
      ],
      "name": "updateWithdrawalDelaySeconds",
      "outputs": [],
      "stateMutability": "nonpayable",
      "type": "function"
    },
    {
      "inputs": [
        {
          "internalType": "uint256",
          "name": "withdrawalRequestId",
          "type": "uint256"
        },
        {
          "components": [
            {
              "internalType": "bool",
              "name": "forEther",
              "type": "bool"
            },
            {
              "internalType": "bool",
              "name": "forERC20",
              "type": "bool"
            },
            {
              "internalType": "bool",
              "name": "forERC721",
              "type": "bool"
            },
            {
              "internalType": "address",
              "name": "creator",
              "type": "address"
            },
            {
              "internalType": "address",
              "name": "to",
              "type": "address"
            },
            {
              "internalType": "address",
              "name": "token",
              "type": "address"
            },
            {
              "internalType": "uint256",
              "name": "amount",
              "type": "uint256"
            },
            {
              "internalType": "uint256",
              "name": "tokenId",
              "type": "uint256"
            },
            {
              "internalType": "uint256",
              "name": "forVoteCount",
              "type": "uint256"
            },
            {
              "internalType": "uint256",
              "name": "againstVoteCount",
              "type": "uint256"
            },
            {
              "internalType": "uint256",
              "name": "latestRelevantApproveVoteTime",
              "type": "uint256"
            },
            {
              "internalType": "address[]",
              "name": "votedMembers",
              "type": "address[]"
            }
          ],
          "internalType": "struct WithdrawalRequest",
          "name": "__withdrawalRequest",
          "type": "tuple"
        }
      ],
      "name": "updateWithdrawalRequest",
      "outputs": [],
      "stateMutability": "nonpayable",
      "type": "function"
    },
    {
      "inputs": [
        {
          "internalType": "uint256",
          "name": "withdrawalRequestId",
          "type": "uint256"
        },
        {
          "internalType": "bool",
          "name": "vote",
          "type": "bool"
        }
      ],
      "name": "voteOnWithdrawalRequest",
      "outputs": [],
      "stateMutability": "nonpayable",
      "type": "function"
    },
    {
      "inputs": [],
      "name": "withdrawalDelaySeconds",
      "outputs": [
        {
          "internalType": "uint256",
          "name": "",
          "type": "uint256"
        }
      ],
      "stateMutability": "view",
      "type": "function"
    },
    {
      "inputs": [
        {
          "internalType": "uint256",
          "name": "withdrawalRequestId",
          "type": "uint256"
        }
      ],
      "name": "withdrawalRequestId_withdralRequest",
      "outputs": [
        {
          "components": [
            {
              "internalType": "bool",
              "name": "forEther",
              "type": "bool"
            },
            {
              "internalType": "bool",
              "name": "forERC20",
              "type": "bool"
            },
            {
              "internalType": "bool",
              "name": "forERC721",
              "type": "bool"
            },
            {
              "internalType": "address",
              "name": "creator",
              "type": "address"
            },
            {
              "internalType": "address",
              "name": "to",
              "type": "address"
            },
            {
              "internalType": "address",
              "name": "token",
              "type": "address"
            },
            {
              "internalType": "uint256",
              "name": "amount",
              "type": "uint256"
            },
            {
              "internalType": "uint256",
              "name": "tokenId",
              "type": "uint256"
            },
            {
              "internalType": "uint256",
              "name": "forVoteCount",
              "type": "uint256"
            },
            {
              "internalType": "uint256",
              "name": "againstVoteCount",
              "type": "uint256"
            },
            {
              "internalType": "uint256",
              "name": "latestRelevantApproveVoteTime",
              "type": "uint256"
            },
            {
              "internalType": "address[]",
              "name": "votedMembers",
              "type": "address[]"
            }
          ],
          "internalType": "struct WithdrawalRequest",
          "name": "",
          "type": "tuple"
        }
      ],
      "stateMutability": "view",
      "type": "function"
    },
    {
      "stateMutability": "payable",
      "type": "receive"
    }
  ],
  "bytecode": "0x60a06040523480156200001157600080fd5b50604051620048e1380380620048e18339818101604052810190620000379190620004ac565b8673ffffffffffffffffffffffffffffffffffffffff1660808173ffffffffffffffffffffffffffffffffffffffff168152505060008211620000b1576040517f08c379a0000000000000000000000000000000000000000000000000000000008152600401620000a890620005fe565b60405180910390fd5b60005b8651811015620001645760805173ffffffffffffffffffffffffffffffffffffffff16638a19b4d230898481518110620000f357620000f262000620565b5b60200260200101516040518363ffffffff1660e01b81526004016200011a92919062000660565b600060405180830381600087803b1580156200013557600080fd5b505af11580156200014a573d6000803e3d6000fd5b5050505080806200015b90620006bc565b915050620000b4565b5060005b8551811015620002185760805173ffffffffffffffffffffffffffffffffffffffff16639d58b15d30888481518110620001a757620001a662000620565b5b60200260200101516040518363ffffffff1660e01b8152600401620001ce92919062000660565b600060405180830381600087803b158015620001e957600080fd5b505af1158015620001fe573d6000803e3d6000fd5b5050505080806200020f90620006bc565b91505062000168565b50836000806101000a81548173ffffffffffffffffffffffffffffffffffffffff021916908373ffffffffffffffffffffffffffffffffffffffff16021790555082600181905550816002819055508060038190555060006004819055505050505050505062000709565b6000604051905090565b600080fd5b600080fd5b600073ffffffffffffffffffffffffffffffffffffffff82169050919050565b6000620002c48262000297565b9050919050565b620002d681620002b7565b8114620002e257600080fd5b50565b600081519050620002f681620002cb565b92915050565b600080fd5b6000601f19601f8301169050919050565b7f4e487b7100000000000000000000000000000000000000000000000000000000600052604160045260246000fd5b6200034c8262000301565b810181811067ffffffffffffffff821117156200036e576200036d62000312565b5b80604052505050565b60006200038362000283565b905062000391828262000341565b919050565b600067ffffffffffffffff821115620003b457620003b362000312565b5b602082029050602081019050919050565b600080fd5b6000620003e1620003db8462000396565b62000377565b90508083825260208201905060208402830185811115620004075762000406620003c5565b5b835b818110156200043457806200041f8882620002e5565b84526020840193505060208101905062000409565b5050509392505050565b600082601f830112620004565762000455620002fc565b5b815162000468848260208601620003ca565b91505092915050565b6000819050919050565b620004868162000471565b81146200049257600080fd5b50565b600081519050620004a6816200047b565b92915050565b600080600080600080600060e0888a031215620004ce57620004cd6200028d565b5b6000620004de8a828b01620002e5565b975050602088015167ffffffffffffffff81111562000502576200050162000292565b5b620005108a828b016200043e565b965050604088015167ffffffffffffffff81111562000534576200053362000292565b5b620005428a828b016200043e565b9550506060620005558a828b01620002e5565b9450506080620005688a828b0162000495565b93505060a06200057b8a828b0162000495565b92505060c06200058e8a828b0162000495565b91505092959891949750929550565b600082825260208201905092915050565b7f215f666f72566f7465436f756e74526571756972656400000000000000000000600082015250565b6000620005e66016836200059d565b9150620005f382620005ae565b602082019050919050565b600060208201905081810360008301526200061981620005d7565b9050919050565b7f4e487b7100000000000000000000000000000000000000000000000000000000600052603260045260246000fd5b6200065a81620002b7565b82525050565b60006040820190506200067760008301856200064f565b6200068660208301846200064f565b9392505050565b7f4e487b7100000000000000000000000000000000000000000000000000000000600052601160045260246000fd5b6000620006c98262000471565b91507fffffffffffffffffffffffffffffffffffffffffffffffffffffffffffffffff8203620006fe57620006fd6200068d565b5b600182019050919050565b6080516141456200079c600039600081816104cc0152818161094701528181610a2501528181610b5f01528181610c3d01528181610cd001528181610eb40152818161102f0152818161110d015281816111a60152818161168701528181611765015281816117fe0152818161196501528181611d5701528181611d7d015281816125d5015261294a01526141456000f3fe60806040526004361061012e5760003560e01c80638c284df8116100ab578063cf2061a61161006f578063cf2061a6146103d0578063d2384004146103f9578063db04749d14610422578063e06d97ba1461044d578063ed03a8a714610476578063ed543c4f1461049f57610135565b80638c284df8146102eb5780639afc602114610314578063c32e9e831461033f578063ca6d56dc1461037c578063cec2e5a2146103a557610135565b8063359c6792116100f2578063359c67921461021857806354befcfe146102435780635fd6d2d71461026e578063704802751461029757806371839418146102c057610135565b80630ad326c3146101375780630b1ca49a146101605780631626ba7e146101895780631785f53c146101c65780633318f9a3146101ef57610135565b3661013557005b005b34801561014357600080fd5b5061015e60048036038101906101599190612e6a565b6104c8565b005b34801561016c57600080fd5b5061018760048036038101906101829190612f08565b610943565b005b34801561019557600080fd5b506101b060048036038101906101ab91906130b1565b610ab4565b6040516101bd9190613148565b60405180910390f35b3480156101d257600080fd5b506101ed60048036038101906101e89190612f08565b610b5b565b005b3480156101fb57600080fd5b5061021660048036038101906102119190613163565b610ccc565b005b34801561022457600080fd5b5061022d610e34565b60405161023a919061319f565b60405180910390f35b34801561024f57600080fd5b50610258610e58565b6040516102659190613278565b60405180910390f35b34801561027a57600080fd5b5061029560048036038101906102909190612f08565b610eb0565b005b3480156102a357600080fd5b506102be60048036038101906102b99190612f08565b61102b565b005b3480156102cc57600080fd5b506102d561119c565b6040516102e291906132a9565b60405180910390f35b3480156102f757600080fd5b50610312600480360381019061030d9190613163565b6111a2565b005b34801561032057600080fd5b50610329611381565b60405161033691906132a9565b60405180910390f35b34801561034b57600080fd5b5061036660048036038101906103619190613163565b611387565b6040516103739190613495565b60405180910390f35b34801561038857600080fd5b506103a3600480360381019061039e9190612f08565b611683565b005b3480156103b157600080fd5b506103ba6117f4565b6040516103c791906132a9565b60405180910390f35b3480156103dc57600080fd5b506103f760048036038101906103f29190613163565b6117fa565b005b34801561040557600080fd5b50610420600480360381019061041b91906134b7565b611961565b005b34801561042e57600080fd5b50610437611d55565b604051610444919061319f565b60405180910390f35b34801561045957600080fd5b50610474600480360381019061046f9190613163565b611d79565b005b34801561048257600080fd5b5061049d60048036038101906104989190613769565b6125d1565b005b3480156104ab57600080fd5b506104c660048036038101906104c19190613163565b612946565b005b60007f000000000000000000000000000000000000000000000000000000000000000073ffffffffffffffffffffffffffffffffffffffff1663b56d7abb33306040518363ffffffff1660e01b81526004016105259291906137c5565b6040805180830381865afa158015610541573d6000803e3d6000fd5b505050506040513d601f19601f820116820180604052508101906105659190613803565b915050806105a8576040517f08c379a000000000000000000000000000000000000000000000000000000000815260040161059f906138a0565b60405180910390fd5b826006600082815260200190815260200160002060000160009054906101000a900460ff16806105f857506006600082815260200190815260200160002060000160019054906101000a900460ff165b8061062357506006600082815260200190815260200160002060000160029054906101000a900460ff165b610662576040517f08c379a00000000000000000000000000000000000000000000000000000000081526004016106599061390c565b60405180910390fd5b60005b6006600086815260200190815260200160002060080180549050811015610759573373ffffffffffffffffffffffffffffffffffffffff166006600087815260200190815260200160002060080182815481106106c5576106c461392c565b5b9060005260206000200160009054906101000a900473ffffffffffffffffffffffffffffffffffffffff1673ffffffffffffffffffffffffffffffffffffffff1603610746576040517f08c379a000000000000000000000000000000000000000000000000000000000815260040161073d906139a7565b60405180910390fd5b8080610751906139f6565b915050610665565b50821561079157600660008581526020019081526020016000206005016000815480929190610787906139f6565b91905055506107be565b6006600085815260200190815260200160002060060160008154809291906107b8906139f6565b91905055505b60025460066000868152602001908152602001600020600501541015806107fd5750600154600660008681526020019081526020016000206006015410155b1561083a577f1110f4907359b0bd78694367ee61d5e756f8ed24a1708a1834702234a10b54c18460405161083191906132a9565b60405180910390a15b60066000858152602001908152602001600020600801339080600181540180825580915050600190039060005260206000200160009091909190916101000a81548173ffffffffffffffffffffffffffffffffffffffff021916908373ffffffffffffffffffffffffffffffffffffffff160217905550600254600660008681526020019081526020016000206005015410156108ed574260066000868152602001908152602001600020600701819055505b3373ffffffffffffffffffffffffffffffffffffffff167f42b220aa6e2bd94a0eff902301e1f3d45704fe4456174b8a8cefd06e4660f3068585604051610935929190613a4d565b60405180910390a250505050565b60007f000000000000000000000000000000000000000000000000000000000000000073ffffffffffffffffffffffffffffffffffffffff1663b56d7abb33306040518363ffffffff1660e01b81526004016109a09291906137c5565b6040805180830381865afa1580156109bc573d6000803e3d6000fd5b505050506040513d601f19601f820116820180604052508101906109e09190613803565b50905080610a23576040517f08c379a0000000000000000000000000000000000000000000000000000000008152600401610a1a90613ac2565b60405180910390fd5b7f000000000000000000000000000000000000000000000000000000000000000073ffffffffffffffffffffffffffffffffffffffff1663e29b090430846040518363ffffffff1660e01b8152600401610a7e9291906137c5565b600060405180830381600087803b158015610a9857600080fd5b505af1158015610aac573d6000803e3d6000fd5b505050505050565b60008060009054906101000a900473ffffffffffffffffffffffffffffffffffffffff1673ffffffffffffffffffffffffffffffffffffffff16631626ba7e84846040518363ffffffff1660e01b8152600401610b12929190613b70565b602060405180830381865afa158015610b2f573d6000803e3d6000fd5b505050506040513d601f19601f82011682018060405250810190610b539190613bcc565b905092915050565b60007f000000000000000000000000000000000000000000000000000000000000000073ffffffffffffffffffffffffffffffffffffffff1663b56d7abb33306040518363ffffffff1660e01b8152600401610bb89291906137c5565b6040805180830381865afa158015610bd4573d6000803e3d6000fd5b505050506040513d601f19601f82011682018060405250810190610bf89190613803565b50905080610c3b576040517f08c379a0000000000000000000000000000000000000000000000000000000008152600401610c3290613ac2565b60405180910390fd5b7f000000000000000000000000000000000000000000000000000000000000000073ffffffffffffffffffffffffffffffffffffffff1663268959e530846040518363ffffffff1660e01b8152600401610c969291906137c5565b600060405180830381600087803b158015610cb057600080fd5b505af1158015610cc4573d6000803e3d6000fd5b505050505050565b60007f000000000000000000000000000000000000000000000000000000000000000073ffffffffffffffffffffffffffffffffffffffff1663b56d7abb33306040518363ffffffff1660e01b8152600401610d299291906137c5565b6040805180830381865afa158015610d45573d6000803e3d6000fd5b505050506040513d601f19601f82011682018060405250810190610d699190613803565b50905080610dac576040517f08c379a0000000000000000000000000000000000000000000000000000000008152600401610da390613ac2565b60405180910390fd5b6000821015610df0576040517f08c379a0000000000000000000000000000000000000000000000000000000008152600401610de790613c45565b60405180910390fd5b816003819055507f39863db11dc8eb2666ac42ebbedccc342e889b76e82f3ba8dc6e64f8a22ffef1600354604051610e2891906132a9565b60405180910390a15050565b60008054906101000a900473ffffffffffffffffffffffffffffffffffffffff1681565b60606005805480602002602001604051908101604052809291908181526020018280548015610ea657602002820191906000526020600020905b815481526020019060010190808311610e92575b5050505050905090565b60007f000000000000000000000000000000000000000000000000000000000000000073ffffffffffffffffffffffffffffffffffffffff1663b56d7abb33306040518363ffffffff1660e01b8152600401610f0d9291906137c5565b6040805180830381865afa158015610f29573d6000803e3d6000fd5b505050506040513d601f19601f82011682018060405250810190610f4d9190613803565b50905080610f90576040517f08c379a0000000000000000000000000000000000000000000000000000000008152600401610f8790613ac2565b60405180910390fd5b816000806101000a81548173ffffffffffffffffffffffffffffffffffffffff021916908373ffffffffffffffffffffffffffffffffffffffff1602179055507f576065ee011092e1638839ca4f1e311edbed389e51412dae06deacf4ac6d9e2560008054906101000a900473ffffffffffffffffffffffffffffffffffffffff1660405161101f919061319f565b60405180910390a15050565b60007f000000000000000000000000000000000000000000000000000000000000000073ffffffffffffffffffffffffffffffffffffffff1663b56d7abb33306040518363ffffffff1660e01b81526004016110889291906137c5565b6040805180830381865afa1580156110a4573d6000803e3d6000fd5b505050506040513d601f19601f820116820180604052508101906110c89190613803565b5090508061110b576040517f08c379a000000000000000000000000000000000000000000000000000000000815260040161110290613ac2565b60405180910390fd5b7f000000000000000000000000000000000000000000000000000000000000000073ffffffffffffffffffffffffffffffffffffffff16638a19b4d230846040518363ffffffff1660e01b81526004016111669291906137c5565b600060405180830381600087803b15801561118057600080fd5b505af1158015611194573d6000803e3d6000fd5b505050505050565b60035481565b60007f000000000000000000000000000000000000000000000000000000000000000073ffffffffffffffffffffffffffffffffffffffff1663b56d7abb33306040518363ffffffff1660e01b81526004016111ff9291906137c5565b6040805180830381865afa15801561121b573d6000803e3d6000fd5b505050506040513d601f19601f8201168201806040525081019061123f9190613803565b50905080611282576040517f08c379a000000000000000000000000000000000000000000000000000000000815260040161127990613ac2565b60405180910390fd5b816006600082815260200190815260200160002060000160009054906101000a900460ff16806112d257506006600082815260200190815260200160002060000160019054906101000a900460ff165b806112fd57506006600082815260200190815260200160002060000160029054906101000a900460ff165b61133c576040517f08c379a00000000000000000000000000000000000000000000000000000000081526004016113339061390c565b60405180910390fd5b61134583612aad565b7f814dee7ca22ccd3a9ea1f4163c48c2438cf8c755f6c75f9bde209549bc37decb8360405161137491906132a9565b60405180910390a1505050565b60015481565b61138f612c77565b816006600082815260200190815260200160002060000160009054906101000a900460ff16806113df57506006600082815260200190815260200160002060000160019054906101000a900460ff165b8061140a57506006600082815260200190815260200160002060000160029054906101000a900460ff165b611449576040517f08c379a00000000000000000000000000000000000000000000000000000000081526004016114409061390c565b60405180910390fd5b60066000848152602001908152602001600020604051806101800160405290816000820160009054906101000a900460ff161515151581526020016000820160019054906101000a900460ff161515151581526020016000820160029054906101000a900460ff161515151581526020016000820160039054906101000a900473ffffffffffffffffffffffffffffffffffffffff1673ffffffffffffffffffffffffffffffffffffffff1673ffffffffffffffffffffffffffffffffffffffff1681526020016001820160009054906101000a900473ffffffffffffffffffffffffffffffffffffffff1673ffffffffffffffffffffffffffffffffffffffff1673ffffffffffffffffffffffffffffffffffffffff1681526020016002820160009054906101000a900473ffffffffffffffffffffffffffffffffffffffff1673ffffffffffffffffffffffffffffffffffffffff1673ffffffffffffffffffffffffffffffffffffffff16815260200160038201548152602001600482015481526020016005820154815260200160068201548152602001600782015481526020016008820180548060200260200160405190810160405280929190818152602001828054801561167257602002820191906000526020600020905b8160009054906101000a900473ffffffffffffffffffffffffffffffffffffffff1673ffffffffffffffffffffffffffffffffffffffff1681526020019060010190808311611628575b505050505081525050915050919050565b60007f000000000000000000000000000000000000000000000000000000000000000073ffffffffffffffffffffffffffffffffffffffff1663b56d7abb33306040518363ffffffff1660e01b81526004016116e09291906137c5565b6040805180830381865afa1580156116fc573d6000803e3d6000fd5b505050506040513d601f19601f820116820180604052508101906117209190613803565b50905080611763576040517f08c379a000000000000000000000000000000000000000000000000000000000815260040161175a90613ac2565b60405180910390fd5b7f000000000000000000000000000000000000000000000000000000000000000073ffffffffffffffffffffffffffffffffffffffff16639d58b15d30846040518363ffffffff1660e01b81526004016117be9291906137c5565b600060405180830381600087803b1580156117d857600080fd5b505af11580156117ec573d6000803e3d6000fd5b505050505050565b60025481565b60007f000000000000000000000000000000000000000000000000000000000000000073ffffffffffffffffffffffffffffffffffffffff1663b56d7abb33306040518363ffffffff1660e01b81526004016118579291906137c5565b6040805180830381865afa158015611873573d6000803e3d6000fd5b505050506040513d601f19601f820116820180604052508101906118979190613803565b509050806118da576040517f08c379a00000000000000000000000000000000000000000000000000000000081526004016118d190613ac2565b60405180910390fd5b6000821161191d576040517f08c379a000000000000000000000000000000000000000000000000000000000815260040161191490613cb1565b60405180910390fd5b816002819055507ff0470d85ad02aeb2a53a78590ad917db164517a023dabc62506d3d40a58ad3c760025460405161195591906132a9565b60405180910390a15050565b60007f000000000000000000000000000000000000000000000000000000000000000073ffffffffffffffffffffffffffffffffffffffff1663b56d7abb33306040518363ffffffff1660e01b81526004016119be9291906137c5565b6040805180830381865afa1580156119da573d6000803e3d6000fd5b505050506040513d601f19601f820116820180604052508101906119fe9190613803565b91505080611a41576040517f08c379a0000000000000000000000000000000000000000000000000000000008152600401611a38906138a0565b60405180910390fd5b60008311611a84576040517f08c379a0000000000000000000000000000000000000000000000000000000008152600401611a7b90613d1d565b60405180910390fd5b60606040518061018001604052808a15158152602001891515815260200188151581526020013373ffffffffffffffffffffffffffffffffffffffff1681526020018773ffffffffffffffffffffffffffffffffffffffff1681526020018673ffffffffffffffffffffffffffffffffffffffff16815260200185815260200184815260200160008152602001600081526020014281526020018281525060066000600454815260200190815260200160002060008201518160000160006101000a81548160ff02191690831515021790555060208201518160000160016101000a81548160ff02191690831515021790555060408201518160000160026101000a81548160ff02191690831515021790555060608201518160000160036101000a81548173ffffffffffffffffffffffffffffffffffffffff021916908373ffffffffffffffffffffffffffffffffffffffff16021790555060808201518160010160006101000a81548173ffffffffffffffffffffffffffffffffffffffff021916908373ffffffffffffffffffffffffffffffffffffffff16021790555060a08201518160020160006101000a81548173ffffffffffffffffffffffffffffffffffffffff021916908373ffffffffffffffffffffffffffffffffffffffff16021790555060c0820151816003015560e08201518160040155610100820151816005015561012082015181600601556101408201518160070155610160820151816008019080519060200190611cbe929190612d20565b509050506005600454908060018154018082558091505060019003906000526020600020016000909190919091505560046000815480929190611d00906139f6565b91905055507f6788d571cec7cf5fc66326e0110dc360272339edc4fc69dc1935988f33372ca06001600454611d359190613d3d565b604051611d4291906132a9565b60405180910390a1505050505050505050565b7f000000000000000000000000000000000000000000000000000000000000000081565b60007f000000000000000000000000000000000000000000000000000000000000000073ffffffffffffffffffffffffffffffffffffffff1663b56d7abb33306040518363ffffffff1660e01b8152600401611dd69291906137c5565b6040805180830381865afa158015611df2573d6000803e3d6000fd5b505050506040513d601f19601f82011682018060405250810190611e169190613803565b91505080611e59576040517f08c379a0000000000000000000000000000000000000000000000000000000008152600401611e50906138a0565b60405180910390fd5b816006600082815260200190815260200160002060000160009054906101000a900460ff1680611ea957506006600082815260200190815260200160002060000160019054906101000a900460ff165b80611ed457506006600082815260200190815260200160002060000160029054906101000a900460ff165b611f13576040517f08c379a0000000000000000000000000000000000000000000000000000000008152600401611f0a9061390c565b60405180910390fd5b600060066000858152602001908152602001600020604051806101800160405290816000820160009054906101000a900460ff161515151581526020016000820160019054906101000a900460ff161515151581526020016000820160029054906101000a900460ff161515151581526020016000820160039054906101000a900473ffffffffffffffffffffffffffffffffffffffff1673ffffffffffffffffffffffffffffffffffffffff1673ffffffffffffffffffffffffffffffffffffffff1681526020016001820160009054906101000a900473ffffffffffffffffffffffffffffffffffffffff1673ffffffffffffffffffffffffffffffffffffffff1673ffffffffffffffffffffffffffffffffffffffff1681526020016002820160009054906101000a900473ffffffffffffffffffffffffffffffffffffffff1673ffffffffffffffffffffffffffffffffffffffff1673ffffffffffffffffffffffffffffffffffffffff16815260200160038201548152602001600482015481526020016005820154815260200160068201548152602001600782015481526020016008820180548060200260200160405190810160405280929190818152602001828054801561213e57602002820191906000526020600020905b8160009054906101000a900473ffffffffffffffffffffffffffffffffffffffff1673ffffffffffffffffffffffffffffffffffffffff16815260200190600101908083116120f4575b5050505050815250509050600254816101000151101580612166575060015481610120015110155b6121a5576040517f08c379a000000000000000000000000000000000000000000000000000000000815260040161219c90613de3565b60405180910390fd5b600254816101000151106125c25760016003546121c29190613e03565b816101400151426121d39190613d3d565b1015612214576040517f08c379a000000000000000000000000000000000000000000000000000000000815260040161220b90613e91565b60405180910390fd5b8060200151801561222757508060400151155b15612345578060c001518160a0015173ffffffffffffffffffffffffffffffffffffffff166370a08231306040518263ffffffff1660e01b815260040161226e919061319f565b602060405180830381865afa15801561228b573d6000803e3d6000fd5b505050506040513d601f19601f820116820180604052508101906122af9190613ec6565b10612340578060a0015173ffffffffffffffffffffffffffffffffffffffff1663a9059cbb82608001518360c001516040518363ffffffff1660e01b81526004016122fb929190613ef3565b6020604051808303816000875af115801561231a573d6000803e3d6000fd5b505050506040513d601f19601f8201168201806040525081019061233e9190613f1c565b505b612554565b8060400151801561235857508060200151155b15612492573073ffffffffffffffffffffffffffffffffffffffff168160a0015173ffffffffffffffffffffffffffffffffffffffff16636352211e8360e001516040518263ffffffff1660e01b81526004016123b591906132a9565b602060405180830381865afa1580156123d2573d6000803e3d6000fd5b505050506040513d601f19601f820116820180604052508101906123f69190613f5e565b73ffffffffffffffffffffffffffffffffffffffff160361248d578060a0015173ffffffffffffffffffffffffffffffffffffffff166323b872dd3083608001518460e001516040518463ffffffff1660e01b815260040161245a93929190613f8b565b600060405180830381600087803b15801561247457600080fd5b505af1158015612488573d6000803e3d6000fd5b505050505b612553565b806000015115612552576000816080015173ffffffffffffffffffffffffffffffffffffffff168260c001516040516124ca90613ff3565b60006040518083038185875af1925050503d8060008114612507576040519150601f19603f3d011682016040523d82523d6000602084013e61250c565b606091505b5050905080612550576040517f08c379a000000000000000000000000000000000000000000000000000000000815260040161254790614054565b60405180910390fd5b505b5b5b806080015173ffffffffffffffffffffffffffffffffffffffff163373ffffffffffffffffffffffffffffffffffffffff167f6337ed398c0e8467698c581374fdce4db14922df487b5a39483079f5f59b60a48360c001516040516125b991906132a9565b60405180910390a35b6125cb84612aad565b50505050565b60007f000000000000000000000000000000000000000000000000000000000000000073ffffffffffffffffffffffffffffffffffffffff1663b56d7abb33306040518363ffffffff1660e01b815260040161262e9291906137c5565b6040805180830381865afa15801561264a573d6000803e3d6000fd5b505050506040513d601f19601f8201168201806040525081019061266e9190613803565b509050806126b1576040517f08c379a00000000000000000000000000000000000000000000000000000000081526004016126a890613ac2565b60405180910390fd5b826006600082815260200190815260200160002060000160009054906101000a900460ff168061270157506006600082815260200190815260200160002060000160019054906101000a900460ff165b8061272c57506006600082815260200190815260200160002060000160029054906101000a900460ff165b61276b576040517f08c379a00000000000000000000000000000000000000000000000000000000081526004016127629061390c565b60405180910390fd5b826006600086815260200190815260200160002060008201518160000160006101000a81548160ff02191690831515021790555060208201518160000160016101000a81548160ff02191690831515021790555060408201518160000160026101000a81548160ff02191690831515021790555060608201518160000160036101000a81548173ffffffffffffffffffffffffffffffffffffffff021916908373ffffffffffffffffffffffffffffffffffffffff16021790555060808201518160010160006101000a81548173ffffffffffffffffffffffffffffffffffffffff021916908373ffffffffffffffffffffffffffffffffffffffff16021790555060a08201518160020160006101000a81548173ffffffffffffffffffffffffffffffffffffffff021916908373ffffffffffffffffffffffffffffffffffffffff16021790555060c0820151816003015560e08201518160040155610100820151816005015561012082015181600601556101408201518160070155610160820151816008019080519060200190612906929190612d20565b509050507ea74f83ad7e185c191813e7ff2003583a0e2f369be105b11fcb0b862428b46f836040516129389190613495565b60405180910390a150505050565b60007f000000000000000000000000000000000000000000000000000000000000000073ffffffffffffffffffffffffffffffffffffffff1663b56d7abb33306040518363ffffffff1660e01b81526004016129a39291906137c5565b6040805180830381865afa1580156129bf573d6000803e3d6000fd5b505050506040513d601f19601f820116820180604052508101906129e39190613803565b50905080612a26576040517f08c379a0000000000000000000000000000000000000000000000000000000008152600401612a1d90613ac2565b60405180910390fd5b60008211612a69576040517f08c379a0000000000000000000000000000000000000000000000000000000008152600401612a60906140c0565b60405180910390fd5b816001819055507fe9e1db4ef9add872cf5f9c740938a57d79e8af5fac570627559dfb616d9c4238600154604051612aa191906132a9565b60405180910390a15050565b60066000828152602001908152602001600020600080820160006101000a81549060ff02191690556000820160016101000a81549060ff02191690556000820160026101000a81549060ff02191690556000820160036101000a81549073ffffffffffffffffffffffffffffffffffffffff02191690556001820160006101000a81549073ffffffffffffffffffffffffffffffffffffffff02191690556002820160006101000a81549073ffffffffffffffffffffffffffffffffffffffff021916905560038201600090556004820160009055600582016000905560068201600090556007820160009055600882016000612baa9190612daa565b505060005b600580549050811015612c73578160058281548110612bd157612bd061392c565b5b906000526020600020015403612c605760056001600580549050612bf59190613d3d565b81548110612c0657612c0561392c565b5b906000526020600020015460058281548110612c2557612c2461392c565b5b90600052602060002001819055506005805480612c4557612c446140e0565b5b60019003818190600052602060002001600090559055612c73565b8080612c6b906139f6565b915050612baf565b5050565b604051806101800160405280600015158152602001600015158152602001600015158152602001600073ffffffffffffffffffffffffffffffffffffffff168152602001600073ffffffffffffffffffffffffffffffffffffffff168152602001600073ffffffffffffffffffffffffffffffffffffffff1681526020016000815260200160008152602001600081526020016000815260200160008152602001606081525090565b828054828255906000526020600020908101928215612d99579160200282015b82811115612d985782518260006101000a81548173ffffffffffffffffffffffffffffffffffffffff021916908373ffffffffffffffffffffffffffffffffffffffff16021790555091602001919060010190612d40565b5b509050612da69190612dcb565b5090565b5080546000825590600052602060002090810190612dc89190612dcb565b50565b5b80821115612de4576000816000905550600101612dcc565b5090565b6000604051905090565b600080fd5b600080fd5b6000819050919050565b612e0f81612dfc565b8114612e1a57600080fd5b50565b600081359050612e2c81612e06565b92915050565b60008115159050919050565b612e4781612e32565b8114612e5257600080fd5b50565b600081359050612e6481612e3e565b92915050565b60008060408385031215612e8157612e80612df2565b5b6000612e8f85828601612e1d565b9250506020612ea085828601612e55565b9150509250929050565b600073ffffffffffffffffffffffffffffffffffffffff82169050919050565b6000612ed582612eaa565b9050919050565b612ee581612eca565b8114612ef057600080fd5b50565b600081359050612f0281612edc565b92915050565b600060208284031215612f1e57612f1d612df2565b5b6000612f2c84828501612ef3565b91505092915050565b6000819050919050565b612f4881612f35565b8114612f5357600080fd5b50565b600081359050612f6581612f3f565b92915050565b600080fd5b600080fd5b6000601f19601f8301169050919050565b7f4e487b7100000000000000000000000000000000000000000000000000000000600052604160045260246000fd5b612fbe82612f75565b810181811067ffffffffffffffff82111715612fdd57612fdc612f86565b5b80604052505050565b6000612ff0612de8565b9050612ffc8282612fb5565b919050565b600067ffffffffffffffff82111561301c5761301b612f86565b5b61302582612f75565b9050602081019050919050565b82818337600083830152505050565b600061305461304f84613001565b612fe6565b9050828152602081018484840111156130705761306f612f70565b5b61307b848285613032565b509392505050565b600082601f83011261309857613097612f6b565b5b81356130a8848260208601613041565b91505092915050565b600080604083850312156130c8576130c7612df2565b5b60006130d685828601612f56565b925050602083013567ffffffffffffffff8111156130f7576130f6612df7565b5b61310385828601613083565b9150509250929050565b60007fffffffff0000000000000000000000000000000000000000000000000000000082169050919050565b6131428161310d565b82525050565b600060208201905061315d6000830184613139565b92915050565b60006020828403121561317957613178612df2565b5b600061318784828501612e1d565b91505092915050565b61319981612eca565b82525050565b60006020820190506131b46000830184613190565b92915050565b600081519050919050565b600082825260208201905092915050565b6000819050602082019050919050565b6131ef81612dfc565b82525050565b600061320183836131e6565b60208301905092915050565b6000602082019050919050565b6000613225826131ba565b61322f81856131c5565b935061323a836131d6565b8060005b8381101561326b57815161325288826131f5565b975061325d8361320d565b92505060018101905061323e565b5085935050505092915050565b60006020820190508181036000830152613292818461321a565b905092915050565b6132a381612dfc565b82525050565b60006020820190506132be600083018461329a565b92915050565b6132cd81612e32565b82525050565b6132dc81612eca565b82525050565b600081519050919050565b600082825260208201905092915050565b6000819050602082019050919050565b600061331a83836132d3565b60208301905092915050565b6000602082019050919050565b600061333e826132e2565b61334881856132ed565b9350613353836132fe565b8060005b8381101561338457815161336b888261330e565b975061337683613326565b925050600181019050613357565b5085935050505092915050565b6000610180830160008301516133aa60008601826132c4565b5060208301516133bd60208601826132c4565b5060408301516133d060408601826132c4565b5060608301516133e360608601826132d3565b5060808301516133f660808601826132d3565b5060a083015161340960a08601826132d3565b5060c083015161341c60c08601826131e6565b5060e083015161342f60e08601826131e6565b506101008301516134446101008601826131e6565b506101208301516134596101208601826131e6565b5061014083015161346e6101408601826131e6565b506101608301518482036101608601526134888282613333565b9150508091505092915050565b600060208201905081810360008301526134af8184613391565b905092915050565b600080600080600080600060e0888a0312156134d6576134d5612df2565b5b60006134e48a828b01612e55565b97505060206134f58a828b01612e55565b96505060406135068a828b01612e55565b95505060606135178a828b01612ef3565b94505060806135288a828b01612ef3565b93505060a06135398a828b01612e1d565b92505060c061354a8a828b01612e1d565b91505092959891949750929550565b600080fd5b600080fd5b600067ffffffffffffffff82111561357e5761357d612f86565b5b602082029050602081019050919050565b600080fd5b60006135a76135a284613563565b612fe6565b905080838252602082019050602084028301858111156135ca576135c961358f565b5b835b818110156135f357806135df8882612ef3565b8452602084019350506020810190506135cc565b5050509392505050565b600082601f83011261361257613611612f6b565b5b8135613622848260208601613594565b91505092915050565b6000610180828403121561364257613641613559565b5b61364d610180612fe6565b9050600061365d84828501612e55565b600083015250602061367184828501612e55565b602083015250604061368584828501612e55565b604083015250606061369984828501612ef3565b60608301525060806136ad84828501612ef3565b60808301525060a06136c184828501612ef3565b60a08301525060c06136d584828501612e1d565b60c08301525060e06136e984828501612e1d565b60e0830152506101006136fe84828501612e1d565b6101008301525061012061371484828501612e1d565b6101208301525061014061372a84828501612e1d565b6101408301525061016082013567ffffffffffffffff8111156137505761374f61355e565b5b61375c848285016135fd565b6101608301525092915050565b600080604083850312156137805761377f612df2565b5b600061378e85828601612e1d565b925050602083013567ffffffffffffffff8111156137af576137ae612df7565b5b6137bb8582860161362b565b9150509250929050565b60006040820190506137da6000830185613190565b6137e76020830184613190565b9392505050565b6000815190506137fd81612e3e565b92915050565b6000806040838503121561381a57613819612df2565b5b6000613828858286016137ee565b9250506020613839858286016137ee565b9150509250929050565b600082825260208201905092915050565b7f216d656d62657200000000000000000000000000000000000000000000000000600082015250565b600061388a600783613843565b915061389582613854565b602082019050919050565b600060208201905081810360008301526138b98161387d565b9050919050565b7f4e6f205769746864726177616c5265717565737420666f756e64000000000000600082015250565b60006138f6601a83613843565b9150613901826138c0565b602082019050919050565b60006020820190508181036000830152613925816138e9565b9050919050565b7f4e487b7100000000000000000000000000000000000000000000000000000000600052603260045260246000fd5b7f416c726561647920766f74656400000000000000000000000000000000000000600082015250565b6000613991600d83613843565b915061399c8261395b565b602082019050919050565b600060208201905081810360008301526139c081613984565b9050919050565b7f4e487b7100000000000000000000000000000000000000000000000000000000600052601160045260246000fd5b6000613a0182612dfc565b91507fffffffffffffffffffffffffffffffffffffffffffffffffffffffffffffffff8203613a3357613a326139c7565b5b600182019050919050565b613a4781612e32565b82525050565b6000604082019050613a62600083018561329a565b613a6f6020830184613a3e565b9392505050565b7f2161646d696e0000000000000000000000000000000000000000000000000000600082015250565b6000613aac600683613843565b9150613ab782613a76565b602082019050919050565b60006020820190508181036000830152613adb81613a9f565b9050919050565b613aeb81612f35565b82525050565b600081519050919050565b600082825260208201905092915050565b60005b83811015613b2b578082015181840152602081019050613b10565b60008484015250505050565b6000613b4282613af1565b613b4c8185613afc565b9350613b5c818560208601613b0d565b613b6581612f75565b840191505092915050565b6000604082019050613b856000830185613ae2565b8181036020830152613b978184613b37565b90509392505050565b613ba98161310d565b8114613bb457600080fd5b50565b600081519050613bc681613ba0565b92915050565b600060208284031215613be257613be1612df2565b5b6000613bf084828501613bb7565b91505092915050565b7f215f7769746864726177616c44656c61795365636f6e64730000000000000000600082015250565b6000613c2f601883613843565b9150613c3a82613bf9565b602082019050919050565b60006020820190508181036000830152613c5e81613c22565b9050919050565b7f215f666f72566f7465436f756e74526571756972656400000000000000000000600082015250565b6000613c9b601683613843565b9150613ca682613c65565b602082019050919050565b60006020820190508181036000830152613cca81613c8e565b9050919050565b7f21616d6f756e7400000000000000000000000000000000000000000000000000600082015250565b6000613d07600783613843565b9150613d1282613cd1565b602082019050919050565b60006020820190508181036000830152613d3681613cfa565b9050919050565b6000613d4882612dfc565b9150613d5383612dfc565b9250828203905081811115613d6b57613d6a6139c7565b5b92915050565b7f21666f72566f7465436f756e7452657175697265642026262021616761696e7360008201527f74566f7465436f756e7400000000000000000000000000000000000000000000602082015250565b6000613dcd602a83613843565b9150613dd882613d71565b604082019050919050565b60006020820190508181036000830152613dfc81613dc0565b9050919050565b6000613e0e82612dfc565b9150613e1983612dfc565b9250828202613e2781612dfc565b91508282048414831517613e3e57613e3d6139c7565b5b5092915050565b7f4e6f7420656e6f7567682074696d652068617320706173736564000000000000600082015250565b6000613e7b601a83613843565b9150613e8682613e45565b602082019050919050565b60006020820190508181036000830152613eaa81613e6e565b9050919050565b600081519050613ec081612e06565b92915050565b600060208284031215613edc57613edb612df2565b5b6000613eea84828501613eb1565b91505092915050565b6000604082019050613f086000830185613190565b613f15602083018461329a565b9392505050565b600060208284031215613f3257613f31612df2565b5b6000613f40848285016137ee565b91505092915050565b600081519050613f5881612edc565b92915050565b600060208284031215613f7457613f73612df2565b5b6000613f8284828501613f49565b91505092915050565b6000606082019050613fa06000830186613190565b613fad6020830185613190565b613fba604083018461329a565b949350505050565b600081905092915050565b50565b6000613fdd600083613fc2565b9150613fe882613fcd565b600082019050919050565b6000613ffe82613fd0565b9150819050919050565b7f556e61626c6520746f2073656e642076616c7565000000000000000000000000600082015250565b600061403e601483613843565b915061404982614008565b602082019050919050565b6000602082019050818103600083015261406d81614031565b9050919050565b7f215f616761696e7374566f7465436f756e745265717569726564000000000000600082015250565b60006140aa601a83613843565b91506140b582614074565b602082019050919050565b600060208201905081810360008301526140d98161409d565b9050919050565b7f4e487b7100000000000000000000000000000000000000000000000000000000600052603160045260246000fdfea264697066735822122052d23e72446cfed51ae44bda1c41cd413c2b57743d2e8ee560e41f8d1cdfa18964736f6c63430008120033",
  "linkReferences": {},
  "deployedLinkReferences": {}
}