{
  "_format": "hh-sol-artifact-1",
  "contractName": "MockDapp",
  "sourceName": "contracts/test-contracts/MockDapp.sol",
  "abi": [
    {
      "inputs": [],
      "stateMutability": "nonpayable",
      "type": "constructor"
    },
    {
      "inputs": [],
      "name": "getDomainSeperator",
      "outputs": [
        {
          "internalType": "bytes32",
          "name": "",
          "type": "bytes32"
        }
      ],
      "stateMutability": "view",
      "type": "function"
    },
    {
      "inputs": [
        {
          "internalType": "address",
          "name": "player",
          "type": "address"
        },
        {
          "internalType": "uint256",
          "name": "points",
          "type": "uint256"
        }
      ],
      "name": "getStructHash",
      "outputs": [
        {
          "internalType": "bytes32",
          "name": "",
          "type": "bytes32"
        }
      ],
      "stateMutability": "pure",
      "type": "function"
    },
    {
      "inputs": [
        {
          "internalType": "bytes32",
          "name": "structHash",
          "type": "bytes32"
        }
      ],
      "name": "hashTypedDataV4",
      "outputs": [
        {
          "internalType": "bytes32",
          "name": "",
          "type": "bytes32"
        }
      ],
      "stateMutability": "view",
      "type": "function"
    },
    {
      "inputs": [
        {
          "internalType": "bytes32",
          "name": "hash",
          "type": "bytes32"
        },
        {
          "internalType": "uint8",
          "name": "v",
          "type": "uint8"
        },
        {
          "internalType": "bytes32",
          "name": "r",
          "type": "bytes32"
        },
        {
          "internalType": "bytes32",
          "name": "s",
          "type": "bytes32"
        }
      ],
      "name": "recoverSigner",
      "outputs": [
        {
          "internalType": "address",
          "name": "",
          "type": "address"
        }
      ],
      "stateMutability": "pure",
      "type": "function"
    }
  ],
  "bytecode": "0x6101406040523480156200001257600080fd5b506040518060400160405280600881526020017f4d6f636b446170700000000000000000000000000000000000000000000000008152506040518060400160405280600181526020017f310000000000000000000000000000000000000000000000000000000000000081525060008280519060200120905060008280519060200120905060007f8b73c3c69bb8fe3d512ecc4cf759cc79239f7b179b0ffacaa9a75d522b39400f90508260e081815250508161010081815250504660a08181525050620000e88184846200013760201b60201c565b608081815250503073ffffffffffffffffffffffffffffffffffffffff1660c08173ffffffffffffffffffffffffffffffffffffffff168152505080610120818152505050505050506200024b565b6000838383463060405160200162000154959493929190620001ee565b6040516020818303038152906040528051906020012090509392505050565b6000819050919050565b620001888162000173565b82525050565b6000819050919050565b620001a3816200018e565b82525050565b600073ffffffffffffffffffffffffffffffffffffffff82169050919050565b6000620001d682620001a9565b9050919050565b620001e881620001c9565b82525050565b600060a0820190506200020560008301886200017d565b6200021460208301876200017d565b6200022360408301866200017d565b62000232606083018562000198565b620002416080830184620001dd565b9695505050505050565b60805160a05160c05160e0516101005161012051610bf76200029b6000396000610243015260006102850152600061026401526000610199015260006101ef015260006102180152610bf76000f3fe608060405234801561001057600080fd5b506004361061004c5760003560e01c806319435c4b1461005157806320379ee5146100815780634980f2881461009f578063d45167d0146100cf575b600080fd5b61006b60048036038101906100669190610672565b6100ff565b60405161007891906106cb565b60405180910390f35b610089610154565b60405161009691906106cb565b60405180910390f35b6100b960048036038101906100b49190610712565b610163565b6040516100c691906106cb565b60405180910390f35b6100e960048036038101906100e49190610778565b610175565b6040516100f691906107ee565b60405180910390f35b60007fe3e0f0b738f84d023369196ee5f698dd49f59a82d59718553e9822df96ae4691838360405160200161013693929190610818565b60405160208183030381529060405280519060200120905092915050565b600061015e610195565b905090565b600061016e826102af565b9050919050565b600061018b610183866102c9565b8585856102f9565b9050949350505050565b60007f000000000000000000000000000000000000000000000000000000000000000073ffffffffffffffffffffffffffffffffffffffff163073ffffffffffffffffffffffffffffffffffffffff1614801561021157507f000000000000000000000000000000000000000000000000000000000000000046145b1561023e577f000000000000000000000000000000000000000000000000000000000000000090506102ac565b6102a97f00000000000000000000000000000000000000000000000000000000000000007f00000000000000000000000000000000000000000000000000000000000000007f0000000000000000000000000000000000000000000000000000000000000000610324565b90505b90565b60006102c26102bc610195565b8361035e565b9050919050565b6000816040516020016102dc91906108c7565b604051602081830303815290604052805190602001209050919050565b600080600061030a87878787610391565b9150915061031781610473565b8192505050949350505050565b6000838383463060405160200161033f9594939291906108ed565b6040516020818303038152906040528051906020012090509392505050565b6000828260405160200161037392919061098c565b60405160208183030381529060405280519060200120905092915050565b6000807f7fffffffffffffffffffffffffffffff5d576e7357a4501ddfe92f46681b20a08360001c11156103cc57600060039150915061046a565b6000600187878787604051600081526020016040526040516103f194939291906109d2565b6020604051602081039080840390855afa158015610413573d6000803e3d6000fd5b505050602060405103519050600073ffffffffffffffffffffffffffffffffffffffff168173ffffffffffffffffffffffffffffffffffffffff16036104615760006001925092505061046a565b80600092509250505b94509492505050565b6000600481111561048757610486610a17565b5b81600481111561049a57610499610a17565b5b03156105d657600160048111156104b4576104b3610a17565b5b8160048111156104c7576104c6610a17565b5b03610507576040517f08c379a00000000000000000000000000000000000000000000000000000000081526004016104fe90610aa3565b60405180910390fd5b6002600481111561051b5761051a610a17565b5b81600481111561052e5761052d610a17565b5b0361056e576040517f08c379a000000000000000000000000000000000000000000000000000000000815260040161056590610b0f565b60405180910390fd5b6003600481111561058257610581610a17565b5b81600481111561059557610594610a17565b5b036105d5576040517f08c379a00000000000000000000000000000000000000000000000000000000081526004016105cc90610ba1565b60405180910390fd5b5b50565b600080fd5b600073ffffffffffffffffffffffffffffffffffffffff82169050919050565b6000610609826105de565b9050919050565b610619816105fe565b811461062457600080fd5b50565b60008135905061063681610610565b92915050565b6000819050919050565b61064f8161063c565b811461065a57600080fd5b50565b60008135905061066c81610646565b92915050565b60008060408385031215610689576106886105d9565b5b600061069785828601610627565b92505060206106a88582860161065d565b9150509250929050565b6000819050919050565b6106c5816106b2565b82525050565b60006020820190506106e060008301846106bc565b92915050565b6106ef816106b2565b81146106fa57600080fd5b50565b60008135905061070c816106e6565b92915050565b600060208284031215610728576107276105d9565b5b6000610736848285016106fd565b91505092915050565b600060ff82169050919050565b6107558161073f565b811461076057600080fd5b50565b6000813590506107728161074c565b92915050565b60008060008060808587031215610792576107916105d9565b5b60006107a0878288016106fd565b94505060206107b187828801610763565b93505060406107c2878288016106fd565b92505060606107d3878288016106fd565b91505092959194509250565b6107e8816105fe565b82525050565b600060208201905061080360008301846107df565b92915050565b6108128161063c565b82525050565b600060608201905061082d60008301866106bc565b61083a60208301856107df565b6108476040830184610809565b949350505050565b600081905092915050565b7f19457468657265756d205369676e6564204d6573736167653a0a333200000000600082015250565b6000610890601c8361084f565b915061089b8261085a565b601c82019050919050565b6000819050919050565b6108c16108bc826106b2565b6108a6565b82525050565b60006108d282610883565b91506108de82846108b0565b60208201915081905092915050565b600060a08201905061090260008301886106bc565b61090f60208301876106bc565b61091c60408301866106bc565b6109296060830185610809565b61093660808301846107df565b9695505050505050565b7f1901000000000000000000000000000000000000000000000000000000000000600082015250565b600061097660028361084f565b915061098182610940565b600282019050919050565b600061099782610969565b91506109a382856108b0565b6020820191506109b382846108b0565b6020820191508190509392505050565b6109cc8161073f565b82525050565b60006080820190506109e760008301876106bc565b6109f460208301866109c3565b610a0160408301856106bc565b610a0e60608301846106bc565b95945050505050565b7f4e487b7100000000000000000000000000000000000000000000000000000000600052602160045260246000fd5b600082825260208201905092915050565b7f45434453413a20696e76616c6964207369676e61747572650000000000000000600082015250565b6000610a8d601883610a46565b9150610a9882610a57565b602082019050919050565b60006020820190508181036000830152610abc81610a80565b9050919050565b7f45434453413a20696e76616c6964207369676e6174757265206c656e67746800600082015250565b6000610af9601f83610a46565b9150610b0482610ac3565b602082019050919050565b60006020820190508181036000830152610b2881610aec565b9050919050565b7f45434453413a20696e76616c6964207369676e6174757265202773272076616c60008201527f7565000000000000000000000000000000000000000000000000000000000000602082015250565b6000610b8b602283610a46565b9150610b9682610b2f565b604082019050919050565b60006020820190508181036000830152610bba81610b7e565b905091905056fea264697066735822122095a5e9245e4a1b5bd52946be48fbaf79a980eab4d08cc6be6e63f321baf8636f64736f6c63430008120033",
  "linkReferences": {},
  "deployedLinkReferences": {}
}