{
  "_format": "hh-sol-artifact-1",
  "contractName": "MockSignatureManager",
  "sourceName": "contracts/test-contracts/MockSignatureManager.sol",
  "abi": [
    {
      "inputs": [
        {
          "internalType": "address",
          "name": "_yieldSyncGovernance",
          "type": "address"
        },
        {
          "internalType": "address",
          "name": "_YieldSyncV1VaultRecord",
          "type": "address"
        }
      ],
      "stateMutability": "nonpayable",
      "type": "constructor"
    },
    {
      "anonymous": false,
      "inputs": [
        {
          "indexed": false,
          "internalType": "address",
          "name": "account",
          "type": "address"
        }
      ],
      "name": "Paused",
      "type": "event"
    },
    {
      "anonymous": false,
      "inputs": [
        {
          "indexed": false,
          "internalType": "address",
          "name": "account",
          "type": "address"
        }
      ],
      "name": "Unpaused",
      "type": "event"
    },
    {
      "inputs": [],
      "name": "ERC1271_MAGIC_VALUE",
      "outputs": [
        {
          "internalType": "bytes4",
          "name": "",
          "type": "bytes4"
        }
      ],
      "stateMutability": "view",
      "type": "function"
    },
    {
      "inputs": [],
      "name": "YieldSyncGovernance",
      "outputs": [
        {
          "internalType": "address",
          "name": "",
          "type": "address"
        }
      ],
      "stateMutability": "view",
      "type": "function"
    },
    {
      "inputs": [],
      "name": "YieldSyncV1VaultRecord",
      "outputs": [
        {
          "internalType": "address",
          "name": "",
          "type": "address"
        }
      ],
      "stateMutability": "view",
      "type": "function"
    },
    {
      "inputs": [
        {
          "internalType": "bytes32",
          "name": "_messageHash",
          "type": "bytes32"
        },
        {
          "internalType": "bytes",
          "name": "_signature",
          "type": "bytes"
        }
      ],
      "name": "isValidSignature",
      "outputs": [
        {
          "internalType": "bytes4",
          "name": "magicValue",
          "type": "bytes4"
        }
      ],
      "stateMutability": "view",
      "type": "function"
    },
    {
      "inputs": [],
      "name": "paused",
      "outputs": [
        {
          "internalType": "bool",
          "name": "",
          "type": "bool"
        }
      ],
      "stateMutability": "view",
      "type": "function"
    },
    {
      "inputs": [
        {
          "internalType": "address",
          "name": "yieldSyncV1VaultAddress",
          "type": "address"
        },
        {
          "internalType": "bytes32",
          "name": "messageHash",
          "type": "bytes32"
        },
        {
          "internalType": "bytes",
          "name": "signature",
          "type": "bytes"
        }
      ],
      "name": "signMessageHash",
      "outputs": [],
      "stateMutability": "nonpayable",
      "type": "function"
    },
    {
      "inputs": [
        {
          "internalType": "bool",
          "name": "pause",
          "type": "bool"
        }
      ],
      "name": "updatePause",
      "outputs": [],
      "stateMutability": "nonpayable",
      "type": "function"
    },
    {
      "inputs": [
        {
          "internalType": "address",
          "name": "yieldSyncV1VaultAddress",
          "type": "address"
        },
        {
          "internalType": "bytes32",
          "name": "messageHash",
          "type": "bytes32"
        }
      ],
      "name": "vaultMessageHashData",
      "outputs": [
        {
          "components": [
            {
              "internalType": "bytes",
              "name": "signature",
              "type": "bytes"
            },
            {
              "internalType": "address",
              "name": "signer",
              "type": "address"
            },
            {
              "internalType": "address[]",
              "name": "signedMembers",
              "type": "address[]"
            },
            {
              "internalType": "uint256",
              "name": "signatureCount",
              "type": "uint256"
            }
          ],
          "internalType": "struct MessageHashData",
          "name": "",
          "type": "tuple"
        }
      ],
      "stateMutability": "view",
      "type": "function"
    },
    {
      "inputs": [
        {
          "internalType": "address",
          "name": "yieldSyncV1VaultAddress",
          "type": "address"
        }
      ],
      "name": "vaultMessageHashes",
      "outputs": [
        {
          "internalType": "bytes32[]",
          "name": "",
          "type": "bytes32[]"
        }
      ],
      "stateMutability": "view",
      "type": "function"
    }
  ],
  "bytecode": "0x60c06040523480156200001157600080fd5b50604051620029f2380380620029f2833981810160405281019062000037919062000226565b818160008060006101000a81548160ff02191690831515021790555062000063620000d560201b60201c565b8173ffffffffffffffffffffffffffffffffffffffff1660808173ffffffffffffffffffffffffffffffffffffffff16815250508073ffffffffffffffffffffffffffffffffffffffff1660a08173ffffffffffffffffffffffffffffffffffffffff1681525050505050506200031e565b620000e56200014960201b60201c565b60016000806101000a81548160ff0219169083151502179055507f62e78cea01bee320cd4e420270b5ea74000d11b0c9f74754ebdbfc544b05a258620001306200019e60201b60201c565b6040516200013f91906200027e565b60405180910390a1565b62000159620001a660201b60201c565b156200019c576040517f08c379a00000000000000000000000000000000000000000000000000000000081526004016200019390620002fc565b60405180910390fd5b565b600033905090565b60008060009054906101000a900460ff16905090565b600080fd5b600073ffffffffffffffffffffffffffffffffffffffff82169050919050565b6000620001ee82620001c1565b9050919050565b6200020081620001e1565b81146200020c57600080fd5b50565b6000815190506200022081620001f5565b92915050565b6000806040838503121562000240576200023f620001bc565b5b600062000250858286016200020f565b925050602062000263858286016200020f565b9150509250929050565b6200027881620001e1565b82525050565b60006020820190506200029560008301846200026d565b92915050565b600082825260208201905092915050565b7f5061757361626c653a2070617573656400000000000000000000000000000000600082015250565b6000620002e46010836200029b565b9150620002f182620002ac565b602082019050919050565b600060208201905081810360008301526200031781620002d5565b9050919050565b60805160a0516126996200035960003960008181610617015281816109d60152610d51015260008181610d750152610f8401526126996000f3fe608060405234801561001057600080fd5b50600436106100935760003560e01c80638700b902116100665780638700b90214610134578063db04749d14610150578063e42b5e121461016e578063e4fe976a1461018c578063f8974de0146101bc57610093565b80631626ba7e1461009857806351e80a4c146100c85780635c975abb146100e65780637415b2b414610104575b600080fd5b6100b260048036038101906100ad9190611743565b6101d8565b6040516100bf91906117da565b60405180910390f35b6100d0610553565b6040516100dd91906117da565b60405180910390f35b6100ee61055e565b6040516100fb9190611810565b60405180910390f35b61011e60048036038101906101199190611889565b610574565b60405161012b9190611974565b60405180910390f35b61014e60048036038101906101499190611996565b61060b565b005b610158610d4f565b6040516101659190611a14565b60405180910390f35b610176610d73565b6040516101839190611a14565b60405180910390f35b6101a660048036038101906101a19190611a2f565b610d97565b6040516101b39190611c2f565b60405180910390f35b6101d660048036038101906101d19190611c7d565b610f82565b005b6000806101ed6101e78561107f565b846110af565b90506000600260003373ffffffffffffffffffffffffffffffffffffffff1673ffffffffffffffffffffffffffffffffffffffff168152602001908152602001600020600086815260200190815260200160002060405180608001604052908160008201805461025c90611cd9565b80601f016020809104026020016040519081016040528092919081815260200182805461028890611cd9565b80156102d55780601f106102aa576101008083540402835291602001916102d5565b820191906000526020600020905b8154815290600101906020018083116102b857829003601f168201915b505050505081526020016001820160009054906101000a900473ffffffffffffffffffffffffffffffffffffffff1673ffffffffffffffffffffffffffffffffffffffff1673ffffffffffffffffffffffffffffffffffffffff168152602001600282018054806020026020016040519081016040528092919081815260200182805480156103b957602002820191906000526020600020905b8160009054906101000a900473ffffffffffffffffffffffffffffffffffffffff1673ffffffffffffffffffffffffffffffffffffffff168152602001906001019080831161036f575b50505050508152602001600382015481525050905084600160003373ffffffffffffffffffffffffffffffffffffffff1673ffffffffffffffffffffffffffffffffffffffff16815260200190815260200160002060018060003373ffffffffffffffffffffffffffffffffffffffff1673ffffffffffffffffffffffffffffffffffffffff1681526020019081526020016000208054905061045c9190611d39565b8154811061046d5761046c611d6d565b5b90600052602060002001541480156104b457508173ffffffffffffffffffffffffffffffffffffffff16816020015173ffffffffffffffffffffffffffffffffffffffff16145b801561053257503373ffffffffffffffffffffffffffffffffffffffff1663cec2e5a26040518163ffffffff1660e01b8152600401602060405180830381865afa158015610506573d6000803e3d6000fd5b505050506040513d601f19601f8201168201806040525081019061052a9190611dc8565b816060015110155b61054057600060e01b610549565b631626ba7e60e01b5b9250505092915050565b631626ba7e60e01b81565b60008060009054906101000a900460ff16905090565b6060600160008373ffffffffffffffffffffffffffffffffffffffff1673ffffffffffffffffffffffffffffffffffffffff1681526020019081526020016000208054806020026020016040519081016040528092919081815260200182805480156105ff57602002820191906000526020600020905b8154815260200190600101908083116105eb575b50505050509050919050565b6106136110d6565b60007f000000000000000000000000000000000000000000000000000000000000000073ffffffffffffffffffffffffffffffffffffffff1663b56d7abb33866040518363ffffffff1660e01b8152600401610670929190611df5565b6040805180830381865afa15801561068c573d6000803e3d6000fd5b505050506040513d601f19601f820116820180604052508101906106b09190611e33565b915050806106f3576040517f08c379a00000000000000000000000000000000000000000000000000000000081526004016106ea90611ed0565b60405180910390fd5b6000600260008673ffffffffffffffffffffffffffffffffffffffff1673ffffffffffffffffffffffffffffffffffffffff168152602001908152602001600020600085815260200190815260200160002060405180608001604052908160008201805461076090611cd9565b80601f016020809104026020016040519081016040528092919081815260200182805461078c90611cd9565b80156107d95780601f106107ae576101008083540402835291602001916107d9565b820191906000526020600020905b8154815290600101906020018083116107bc57829003601f168201915b505050505081526020016001820160009054906101000a900473ffffffffffffffffffffffffffffffffffffffff1673ffffffffffffffffffffffffffffffffffffffff1673ffffffffffffffffffffffffffffffffffffffff168152602001600282018054806020026020016040519081016040528092919081815260200182805480156108bd57602002820191906000526020600020905b8160009054906101000a900473ffffffffffffffffffffffffffffffffffffffff1673ffffffffffffffffffffffffffffffffffffffff1681526020019060010190808311610873575b50505050508152602001600382015481525050905060005b816040015151811015610981573373ffffffffffffffffffffffffffffffffffffffff16826040015182815181106109105761090f611d6d565b5b602002602001015173ffffffffffffffffffffffffffffffffffffffff160361096e576040517f08c379a000000000000000000000000000000000000000000000000000000000815260040161096590611f3c565b60405180910390fd5b808061097990611f5c565b9150506108d5565b50600073ffffffffffffffffffffffffffffffffffffffff16816020015173ffffffffffffffffffffffffffffffffffffffff1603610c2b57606060006109d06109ca8761107f565b866110af565b905060007f000000000000000000000000000000000000000000000000000000000000000073ffffffffffffffffffffffffffffffffffffffff1663b56d7abb838a6040518363ffffffff1660e01b8152600401610a2f929190611df5565b6040805180830381865afa158015610a4b573d6000803e3d6000fd5b505050506040513d601f19601f82011682018060405250810190610a6f9190611e33565b91505080610ab2576040517f08c379a0000000000000000000000000000000000000000000000000000000008152600401610aa990611ed0565b60405180910390fd5b60405180608001604052808781526020018373ffffffffffffffffffffffffffffffffffffffff1681526020018481526020016000815250600260008a73ffffffffffffffffffffffffffffffffffffffff1673ffffffffffffffffffffffffffffffffffffffff16815260200190815260200160002060008981526020019081526020016000206000820151816000019081610b4f9190612150565b5060208201518160010160006101000a81548173ffffffffffffffffffffffffffffffffffffffff021916908373ffffffffffffffffffffffffffffffffffffffff1602179055506040820151816002019080519060200190610bb39291906114ce565b5060608201518160030155905050600160008973ffffffffffffffffffffffffffffffffffffffff1673ffffffffffffffffffffffffffffffffffffffff1681526020019081526020016000208790806001815401808255809150506001900390600052602060002001600090919091909150555050505b600260008673ffffffffffffffffffffffffffffffffffffffff1673ffffffffffffffffffffffffffffffffffffffff1681526020019081526020016000206000858152602001908152602001600020600201339080600181540180825580915050600190039060005260206000200160009091909190916101000a81548173ffffffffffffffffffffffffffffffffffffffff021916908373ffffffffffffffffffffffffffffffffffffffff160217905550600260008673ffffffffffffffffffffffffffffffffffffffff1673ffffffffffffffffffffffffffffffffffffffff16815260200190815260200160002060008581526020019081526020016000206003016000815480929190610d4390611f5c565b91905055505050505050565b7f000000000000000000000000000000000000000000000000000000000000000081565b7f000000000000000000000000000000000000000000000000000000000000000081565b610d9f611558565b600260008473ffffffffffffffffffffffffffffffffffffffff1673ffffffffffffffffffffffffffffffffffffffff1681526020019081526020016000206000838152602001908152602001600020604051806080016040529081600082018054610e0a90611cd9565b80601f0160208091040260200160405190810160405280929190818152602001828054610e3690611cd9565b8015610e835780601f10610e5857610100808354040283529160200191610e83565b820191906000526020600020905b815481529060010190602001808311610e6657829003601f168201915b505050505081526020016001820160009054906101000a900473ffffffffffffffffffffffffffffffffffffffff1673ffffffffffffffffffffffffffffffffffffffff1673ffffffffffffffffffffffffffffffffffffffff16815260200160028201805480602002602001604051908101604052809291908181526020018280548015610f6757602002820191906000526020600020905b8160009054906101000a900473ffffffffffffffffffffffffffffffffffffffff1673ffffffffffffffffffffffffffffffffffffffff1681526020019060010190808311610f1d575b50505050508152602001600382015481525050905092915050565b7f000000000000000000000000000000000000000000000000000000000000000073ffffffffffffffffffffffffffffffffffffffff166391d148546000801b336040518363ffffffff1660e01b8152600401610fe0929190612231565b602060405180830381865afa158015610ffd573d6000803e3d6000fd5b505050506040513d601f19601f82011682018060405250810190611021919061225a565b611060576040517f08c379a0000000000000000000000000000000000000000000000000000000008152600401611057906122d3565b60405180910390fd5b80156110735761106e611120565b61107c565b61107b611182565b5b50565b600081604051602001611092919061236b565b604051602081830303815290604052805190602001209050919050565b60008060006110be85856111e4565b915091506110cb81611235565b819250505092915050565b6110de61055e565b1561111e576040517f08c379a0000000000000000000000000000000000000000000000000000000008152600401611115906123dd565b60405180910390fd5b565b6111286110d6565b60016000806101000a81548160ff0219169083151502179055507f62e78cea01bee320cd4e420270b5ea74000d11b0c9f74754ebdbfc544b05a25861116b61139b565b6040516111789190611a14565b60405180910390a1565b61118a6113a3565b60008060006101000a81548160ff0219169083151502179055507f5db9ee0a495bf2e6ff9c91a7834c1ba4fdd244a5e8aa4e537bd38aeae4b073aa6111cd61139b565b6040516111da9190611a14565b60405180910390a1565b60008060418351036112255760008060006020860151925060408601519150606086015160001a9050611219878285856113ec565b9450945050505061122e565b60006002915091505b9250929050565b60006004811115611249576112486123fd565b5b81600481111561125c5761125b6123fd565b5b03156113985760016004811115611276576112756123fd565b5b816004811115611289576112886123fd565b5b036112c9576040517f08c379a00000000000000000000000000000000000000000000000000000000081526004016112c090612478565b60405180910390fd5b600260048111156112dd576112dc6123fd565b5b8160048111156112f0576112ef6123fd565b5b03611330576040517f08c379a0000000000000000000000000000000000000000000000000000000008152600401611327906124e4565b60405180910390fd5b60036004811115611344576113436123fd565b5b816004811115611357576113566123fd565b5b03611397576040517f08c379a000000000000000000000000000000000000000000000000000000000815260040161138e90612576565b60405180910390fd5b5b50565b600033905090565b6113ab61055e565b6113ea576040517f08c379a00000000000000000000000000000000000000000000000000000000081526004016113e1906125e2565b60405180910390fd5b565b6000807f7fffffffffffffffffffffffffffffff5d576e7357a4501ddfe92f46681b20a08360001c11156114275760006003915091506114c5565b60006001878787876040516000815260200160405260405161144c949392919061261e565b6020604051602081039080840390855afa15801561146e573d6000803e3d6000fd5b505050602060405103519050600073ffffffffffffffffffffffffffffffffffffffff168173ffffffffffffffffffffffffffffffffffffffff16036114bc576000600192509250506114c5565b80600092509250505b94509492505050565b828054828255906000526020600020908101928215611547579160200282015b828111156115465782518260006101000a81548173ffffffffffffffffffffffffffffffffffffffff021916908373ffffffffffffffffffffffffffffffffffffffff160217905550916020019190600101906114ee565b5b5090506115549190611596565b5090565b604051806080016040528060608152602001600073ffffffffffffffffffffffffffffffffffffffff16815260200160608152602001600081525090565b5b808211156115af576000816000905550600101611597565b5090565b6000604051905090565b600080fd5b600080fd5b6000819050919050565b6115da816115c7565b81146115e557600080fd5b50565b6000813590506115f7816115d1565b92915050565b600080fd5b600080fd5b6000601f19601f8301169050919050565b7f4e487b7100000000000000000000000000000000000000000000000000000000600052604160045260246000fd5b61165082611607565b810181811067ffffffffffffffff8211171561166f5761166e611618565b5b80604052505050565b60006116826115b3565b905061168e8282611647565b919050565b600067ffffffffffffffff8211156116ae576116ad611618565b5b6116b782611607565b9050602081019050919050565b82818337600083830152505050565b60006116e66116e184611693565b611678565b90508281526020810184848401111561170257611701611602565b5b61170d8482856116c4565b509392505050565b600082601f83011261172a576117296115fd565b5b813561173a8482602086016116d3565b91505092915050565b6000806040838503121561175a576117596115bd565b5b6000611768858286016115e8565b925050602083013567ffffffffffffffff811115611789576117886115c2565b5b61179585828601611715565b9150509250929050565b60007fffffffff0000000000000000000000000000000000000000000000000000000082169050919050565b6117d48161179f565b82525050565b60006020820190506117ef60008301846117cb565b92915050565b60008115159050919050565b61180a816117f5565b82525050565b60006020820190506118256000830184611801565b92915050565b600073ffffffffffffffffffffffffffffffffffffffff82169050919050565b60006118568261182b565b9050919050565b6118668161184b565b811461187157600080fd5b50565b6000813590506118838161185d565b92915050565b60006020828403121561189f5761189e6115bd565b5b60006118ad84828501611874565b91505092915050565b600081519050919050565b600082825260208201905092915050565b6000819050602082019050919050565b6118eb816115c7565b82525050565b60006118fd83836118e2565b60208301905092915050565b6000602082019050919050565b6000611921826118b6565b61192b81856118c1565b9350611936836118d2565b8060005b8381101561196757815161194e88826118f1565b975061195983611909565b92505060018101905061193a565b5085935050505092915050565b6000602082019050818103600083015261198e8184611916565b905092915050565b6000806000606084860312156119af576119ae6115bd565b5b60006119bd86828701611874565b93505060206119ce868287016115e8565b925050604084013567ffffffffffffffff8111156119ef576119ee6115c2565b5b6119fb86828701611715565b9150509250925092565b611a0e8161184b565b82525050565b6000602082019050611a296000830184611a05565b92915050565b60008060408385031215611a4657611a456115bd565b5b6000611a5485828601611874565b9250506020611a65858286016115e8565b9150509250929050565b600081519050919050565b600082825260208201905092915050565b60005b83811015611aa9578082015181840152602081019050611a8e565b60008484015250505050565b6000611ac082611a6f565b611aca8185611a7a565b9350611ada818560208601611a8b565b611ae381611607565b840191505092915050565b611af78161184b565b82525050565b600081519050919050565b600082825260208201905092915050565b6000819050602082019050919050565b6000611b358383611aee565b60208301905092915050565b6000602082019050919050565b6000611b5982611afd565b611b638185611b08565b9350611b6e83611b19565b8060005b83811015611b9f578151611b868882611b29565b9750611b9183611b41565b925050600181019050611b72565b5085935050505092915050565b6000819050919050565b611bbf81611bac565b82525050565b60006080830160008301518482036000860152611be28282611ab5565b9150506020830151611bf76020860182611aee565b5060408301518482036040860152611c0f8282611b4e565b9150506060830151611c246060860182611bb6565b508091505092915050565b60006020820190508181036000830152611c498184611bc5565b905092915050565b611c5a816117f5565b8114611c6557600080fd5b50565b600081359050611c7781611c51565b92915050565b600060208284031215611c9357611c926115bd565b5b6000611ca184828501611c68565b91505092915050565b7f4e487b7100000000000000000000000000000000000000000000000000000000600052602260045260246000fd5b60006002820490506001821680611cf157607f821691505b602082108103611d0457611d03611caa565b5b50919050565b7f4e487b7100000000000000000000000000000000000000000000000000000000600052601160045260246000fd5b6000611d4482611bac565b9150611d4f83611bac565b9250828203905081811115611d6757611d66611d0a565b5b92915050565b7f4e487b7100000000000000000000000000000000000000000000000000000000600052603260045260246000fd5b611da581611bac565b8114611db057600080fd5b50565b600081519050611dc281611d9c565b92915050565b600060208284031215611dde57611ddd6115bd565b5b6000611dec84828501611db3565b91505092915050565b6000604082019050611e0a6000830185611a05565b611e176020830184611a05565b9392505050565b600081519050611e2d81611c51565b92915050565b60008060408385031215611e4a57611e496115bd565b5b6000611e5885828601611e1e565b9250506020611e6985828601611e1e565b9150509250929050565b600082825260208201905092915050565b7f216d656d62657200000000000000000000000000000000000000000000000000600082015250565b6000611eba600783611e73565b9150611ec582611e84565b602082019050919050565b60006020820190508181036000830152611ee981611ead565b9050919050565b7f416c7265616479207369676e6564000000000000000000000000000000000000600082015250565b6000611f26600e83611e73565b9150611f3182611ef0565b602082019050919050565b60006020820190508181036000830152611f5581611f19565b9050919050565b6000611f6782611bac565b91507fffffffffffffffffffffffffffffffffffffffffffffffffffffffffffffffff8203611f9957611f98611d0a565b5b600182019050919050565b60008190508160005260206000209050919050565b60006020601f8301049050919050565b600082821b905092915050565b6000600883026120067fffffffffffffffffffffffffffffffffffffffffffffffffffffffffffffffff82611fc9565b6120108683611fc9565b95508019841693508086168417925050509392505050565b6000819050919050565b600061204d61204861204384611bac565b612028565b611bac565b9050919050565b6000819050919050565b61206783612032565b61207b61207382612054565b848454611fd6565b825550505050565b600090565b612090612083565b61209b81848461205e565b505050565b5b818110156120bf576120b4600082612088565b6001810190506120a1565b5050565b601f821115612104576120d581611fa4565b6120de84611fb9565b810160208510156120ed578190505b6121016120f985611fb9565b8301826120a0565b50505b505050565b600082821c905092915050565b600061212760001984600802612109565b1980831691505092915050565b60006121408383612116565b9150826002028217905092915050565b61215982611a6f565b67ffffffffffffffff81111561217257612171611618565b5b61217c8254611cd9565b6121878282856120c3565b600060209050601f8311600181146121ba57600084156121a8578287015190505b6121b28582612134565b86555061221a565b601f1984166121c886611fa4565b60005b828110156121f0578489015182556001820191506020850194506020810190506121cb565b8683101561220d5784890151612209601f891682612116565b8355505b6001600288020188555050505b505050505050565b61222b816115c7565b82525050565b60006040820190506122466000830185612222565b6122536020830184611a05565b9392505050565b6000602082840312156122705761226f6115bd565b5b600061227e84828501611e1e565b91505092915050565b7f2161757468000000000000000000000000000000000000000000000000000000600082015250565b60006122bd600583611e73565b91506122c882612287565b602082019050919050565b600060208201905081810360008301526122ec816122b0565b9050919050565b600081905092915050565b7f19457468657265756d205369676e6564204d6573736167653a0a333200000000600082015250565b6000612334601c836122f3565b915061233f826122fe565b601c82019050919050565b6000819050919050565b612365612360826115c7565b61234a565b82525050565b600061237682612327565b91506123828284612354565b60208201915081905092915050565b7f5061757361626c653a2070617573656400000000000000000000000000000000600082015250565b60006123c7601083611e73565b91506123d282612391565b602082019050919050565b600060208201905081810360008301526123f6816123ba565b9050919050565b7f4e487b7100000000000000000000000000000000000000000000000000000000600052602160045260246000fd5b7f45434453413a20696e76616c6964207369676e61747572650000000000000000600082015250565b6000612462601883611e73565b915061246d8261242c565b602082019050919050565b6000602082019050818103600083015261249181612455565b9050919050565b7f45434453413a20696e76616c6964207369676e6174757265206c656e67746800600082015250565b60006124ce601f83611e73565b91506124d982612498565b602082019050919050565b600060208201905081810360008301526124fd816124c1565b9050919050565b7f45434453413a20696e76616c6964207369676e6174757265202773272076616c60008201527f7565000000000000000000000000000000000000000000000000000000000000602082015250565b6000612560602283611e73565b915061256b82612504565b604082019050919050565b6000602082019050818103600083015261258f81612553565b9050919050565b7f5061757361626c653a206e6f7420706175736564000000000000000000000000600082015250565b60006125cc601483611e73565b91506125d782612596565b602082019050919050565b600060208201905081810360008301526125fb816125bf565b9050919050565b600060ff82169050919050565b61261881612602565b82525050565b60006080820190506126336000830187612222565b612640602083018661260f565b61264d6040830185612222565b61265a6060830184612222565b9594505050505056fea26469706673582212202d18dbbd035991aafa391d0f6fbbdaa2c6d5e349778c47afff7bc7948eca76af64736f6c63430008120033",
  "linkReferences": {},
  "deployedLinkReferences": {}
}