{
  "_format": "hh-sol-artifact-1",
  "contractName": "MockSignatureManager",
  "sourceName": "contracts/test-contracts/MockSignatureManager.sol",
  "abi": [
    {
      "inputs": [
        {
          "internalType": "address",
          "name": "_yieldSyncGovernance",
          "type": "address"
        },
        {
          "internalType": "address",
          "name": "_yieldSyncV1VaultRecord",
          "type": "address"
        }
      ],
      "stateMutability": "nonpayable",
      "type": "constructor"
    },
    {
      "anonymous": false,
      "inputs": [
        {
          "indexed": false,
          "internalType": "address",
          "name": "account",
          "type": "address"
        }
      ],
      "name": "Paused",
      "type": "event"
    },
    {
      "anonymous": false,
      "inputs": [
        {
          "indexed": false,
          "internalType": "address",
          "name": "account",
          "type": "address"
        }
      ],
      "name": "Unpaused",
      "type": "event"
    },
    {
      "inputs": [],
      "name": "ERC1271_MAGIC_VALUE",
      "outputs": [
        {
          "internalType": "bytes4",
          "name": "",
          "type": "bytes4"
        }
      ],
      "stateMutability": "view",
      "type": "function"
    },
    {
      "inputs": [
        {
          "internalType": "bytes32",
          "name": "_messageHash",
          "type": "bytes32"
        },
        {
          "internalType": "bytes",
          "name": "_signature",
          "type": "bytes"
        }
      ],
      "name": "isValidSignature",
      "outputs": [
        {
          "internalType": "bytes4",
          "name": "magicValue",
          "type": "bytes4"
        }
      ],
      "stateMutability": "view",
      "type": "function"
    },
    {
      "inputs": [],
      "name": "paused",
      "outputs": [
        {
          "internalType": "bool",
          "name": "",
          "type": "bool"
        }
      ],
      "stateMutability": "view",
      "type": "function"
    },
    {
      "inputs": [
        {
          "internalType": "address",
          "name": "yieldSyncV1VaultAddress",
          "type": "address"
        },
        {
          "internalType": "bytes32",
          "name": "messageHash",
          "type": "bytes32"
        },
        {
          "internalType": "bytes",
          "name": "signature",
          "type": "bytes"
        }
      ],
      "name": "signMessageHash",
      "outputs": [],
      "stateMutability": "nonpayable",
      "type": "function"
    },
    {
      "inputs": [
        {
          "internalType": "bool",
          "name": "pause",
          "type": "bool"
        }
      ],
      "name": "updatePause",
      "outputs": [],
      "stateMutability": "nonpayable",
      "type": "function"
    },
    {
      "inputs": [
        {
          "internalType": "address",
          "name": "yieldSyncV1VaultAddress",
          "type": "address"
        },
        {
          "internalType": "bytes32",
          "name": "messageHash",
          "type": "bytes32"
        }
      ],
      "name": "vaultMessageHashData",
      "outputs": [
        {
          "components": [
            {
              "internalType": "bytes",
              "name": "signature",
              "type": "bytes"
            },
            {
              "internalType": "address",
              "name": "signer",
              "type": "address"
            },
            {
              "internalType": "address[]",
              "name": "signedMembers",
              "type": "address[]"
            },
            {
              "internalType": "uint256",
              "name": "signatureCount",
              "type": "uint256"
            }
          ],
          "internalType": "struct MessageHashData",
          "name": "",
          "type": "tuple"
        }
      ],
      "stateMutability": "view",
      "type": "function"
    },
    {
      "inputs": [
        {
          "internalType": "address",
          "name": "yieldSyncV1VaultAddress",
          "type": "address"
        }
      ],
      "name": "vaultMessageHashes",
      "outputs": [
        {
          "internalType": "bytes32[]",
          "name": "",
          "type": "bytes32[]"
        }
      ],
      "stateMutability": "view",
      "type": "function"
    },
    {
      "inputs": [],
      "name": "yieldSyncGovernance",
      "outputs": [
        {
          "internalType": "address",
          "name": "",
          "type": "address"
        }
      ],
      "stateMutability": "view",
      "type": "function"
    },
    {
      "inputs": [],
      "name": "yieldSyncV1VaultRecord",
      "outputs": [
        {
          "internalType": "address",
          "name": "",
          "type": "address"
        }
      ],
      "stateMutability": "view",
      "type": "function"
    }
  ],
  "bytecode": "0x60806040523480156200001157600080fd5b5060405162002b3038038062002b30833981810160405281019062000037919062000240565b818160008060006101000a81548160ff02191690831515021790555062000063620000ef60201b60201c565b81600060016101000a81548173ffffffffffffffffffffffffffffffffffffffff021916908373ffffffffffffffffffffffffffffffffffffffff16021790555080600160006101000a81548173ffffffffffffffffffffffffffffffffffffffff021916908373ffffffffffffffffffffffffffffffffffffffff1602179055505050505062000338565b620000ff6200016360201b60201c565b60016000806101000a81548160ff0219169083151502179055507f62e78cea01bee320cd4e420270b5ea74000d11b0c9f74754ebdbfc544b05a2586200014a620001b860201b60201c565b60405162000159919062000298565b60405180910390a1565b62000173620001c060201b60201c565b15620001b6576040517f08c379a0000000000000000000000000000000000000000000000000000000008152600401620001ad9062000316565b60405180910390fd5b565b600033905090565b60008060009054906101000a900460ff16905090565b600080fd5b600073ffffffffffffffffffffffffffffffffffffffff82169050919050565b60006200020882620001db565b9050919050565b6200021a81620001fb565b81146200022657600080fd5b50565b6000815190506200023a816200020f565b92915050565b600080604083850312156200025a5762000259620001d6565b5b60006200026a8582860162000229565b92505060206200027d8582860162000229565b9150509250929050565b6200029281620001fb565b82525050565b6000602082019050620002af600083018462000287565b92915050565b600082825260208201905092915050565b7f5061757361626c653a2070617573656400000000000000000000000000000000600082015250565b6000620002fe601083620002b5565b91506200030b82620002c6565b602082019050919050565b600060208201905081810360008301526200033181620002ef565b9050919050565b6127e880620003486000396000f3fe608060405234801561001057600080fd5b50600436106100935760003560e01c80635c975abb116100665780635c975abb146101225780637415b2b4146101405780638700b90214610170578063e4fe976a1461018c578063f8974de0146101bc57610093565b80631626ba7e14610098578063198ff4d0146100c8578063255024f5146100e657806351e80a4c14610104575b600080fd5b6100b260048036038101906100ad91906117e4565b6101d8565b6040516100bf919061187b565b60405180910390f35b6100d0610554565b6040516100dd91906118d7565b60405180910390f35b6100ee61057a565b6040516100fb91906118d7565b60405180910390f35b61010c6105a0565b604051610119919061187b565b60405180910390f35b61012a6105ab565b604051610137919061190d565b60405180910390f35b61015a60048036038101906101559190611954565b6105c1565b6040516101679190611a3f565b60405180910390f35b61018a60048036038101906101859190611a61565b610658565b005b6101a660048036038101906101a19190611ad0565b610da0565b6040516101b39190611cd0565b60405180910390f35b6101d660048036038101906101d19190611d1e565b610f8b565b005b6000806101ed6101e785611120565b84611150565b90506000600360003373ffffffffffffffffffffffffffffffffffffffff1673ffffffffffffffffffffffffffffffffffffffff168152602001908152602001600020600086815260200190815260200160002060405180608001604052908160008201805461025c90611d7a565b80601f016020809104026020016040519081016040528092919081815260200182805461028890611d7a565b80156102d55780601f106102aa576101008083540402835291602001916102d5565b820191906000526020600020905b8154815290600101906020018083116102b857829003601f168201915b505050505081526020016001820160009054906101000a900473ffffffffffffffffffffffffffffffffffffffff1673ffffffffffffffffffffffffffffffffffffffff1673ffffffffffffffffffffffffffffffffffffffff168152602001600282018054806020026020016040519081016040528092919081815260200182805480156103b957602002820191906000526020600020905b8160009054906101000a900473ffffffffffffffffffffffffffffffffffffffff1673ffffffffffffffffffffffffffffffffffffffff168152602001906001019080831161036f575b50505050508152602001600382015481525050905084600260003373ffffffffffffffffffffffffffffffffffffffff1673ffffffffffffffffffffffffffffffffffffffff1681526020019081526020016000206001600260003373ffffffffffffffffffffffffffffffffffffffff1673ffffffffffffffffffffffffffffffffffffffff1681526020019081526020016000208054905061045d9190611dda565b8154811061046e5761046d611e0e565b5b90600052602060002001541480156104b557508173ffffffffffffffffffffffffffffffffffffffff16816020015173ffffffffffffffffffffffffffffffffffffffff16145b801561053357503373ffffffffffffffffffffffffffffffffffffffff1663cec2e5a26040518163ffffffff1660e01b8152600401602060405180830381865afa158015610507573d6000803e3d6000fd5b505050506040513d601f19601f8201168201806040525081019061052b9190611e69565b816060015110155b61054157600060e01b61054a565b631626ba7e60e01b5b9250505092915050565b600160009054906101000a900473ffffffffffffffffffffffffffffffffffffffff1681565b600060019054906101000a900473ffffffffffffffffffffffffffffffffffffffff1681565b631626ba7e60e01b81565b60008060009054906101000a900460ff16905090565b6060600260008373ffffffffffffffffffffffffffffffffffffffff1673ffffffffffffffffffffffffffffffffffffffff16815260200190815260200160002080548060200260200160405190810160405280929190818152602001828054801561064c57602002820191906000526020600020905b815481526020019060010190808311610638575b50505050509050919050565b610660611177565b6000600160009054906101000a900473ffffffffffffffffffffffffffffffffffffffff1673ffffffffffffffffffffffffffffffffffffffff1663b56d7abb33866040518363ffffffff1660e01b81526004016106bf929190611e96565b6040805180830381865afa1580156106db573d6000803e3d6000fd5b505050506040513d601f19601f820116820180604052508101906106ff9190611ed4565b91505080610742576040517f08c379a000000000000000000000000000000000000000000000000000000000815260040161073990611f71565b60405180910390fd5b6000600360008673ffffffffffffffffffffffffffffffffffffffff1673ffffffffffffffffffffffffffffffffffffffff16815260200190815260200160002060008581526020019081526020016000206040518060800160405290816000820180546107af90611d7a565b80601f01602080910402602001604051908101604052809291908181526020018280546107db90611d7a565b80156108285780601f106107fd57610100808354040283529160200191610828565b820191906000526020600020905b81548152906001019060200180831161080b57829003601f168201915b505050505081526020016001820160009054906101000a900473ffffffffffffffffffffffffffffffffffffffff1673ffffffffffffffffffffffffffffffffffffffff1673ffffffffffffffffffffffffffffffffffffffff1681526020016002820180548060200260200160405190810160405280929190818152602001828054801561090c57602002820191906000526020600020905b8160009054906101000a900473ffffffffffffffffffffffffffffffffffffffff1673ffffffffffffffffffffffffffffffffffffffff16815260200190600101908083116108c2575b50505050508152602001600382015481525050905060005b8160400151518110156109d0573373ffffffffffffffffffffffffffffffffffffffff168260400151828151811061095f5761095e611e0e565b5b602002602001015173ffffffffffffffffffffffffffffffffffffffff16036109bd576040517f08c379a00000000000000000000000000000000000000000000000000000000081526004016109b490611fdd565b60405180910390fd5b80806109c890611ffd565b915050610924565b50600073ffffffffffffffffffffffffffffffffffffffff16816020015173ffffffffffffffffffffffffffffffffffffffff1603610c7c5760606000610a1f610a1987611120565b86611150565b90506000600160009054906101000a900473ffffffffffffffffffffffffffffffffffffffff1673ffffffffffffffffffffffffffffffffffffffff1663b56d7abb838a6040518363ffffffff1660e01b8152600401610a80929190611e96565b6040805180830381865afa158015610a9c573d6000803e3d6000fd5b505050506040513d601f19601f82011682018060405250810190610ac09190611ed4565b91505080610b03576040517f08c379a0000000000000000000000000000000000000000000000000000000008152600401610afa90611f71565b60405180910390fd5b60405180608001604052808781526020018373ffffffffffffffffffffffffffffffffffffffff1681526020018481526020016000815250600360008a73ffffffffffffffffffffffffffffffffffffffff1673ffffffffffffffffffffffffffffffffffffffff16815260200190815260200160002060008981526020019081526020016000206000820151816000019081610ba091906121f1565b5060208201518160010160006101000a81548173ffffffffffffffffffffffffffffffffffffffff021916908373ffffffffffffffffffffffffffffffffffffffff1602179055506040820151816002019080519060200190610c0492919061156f565b5060608201518160030155905050600260008973ffffffffffffffffffffffffffffffffffffffff1673ffffffffffffffffffffffffffffffffffffffff1681526020019081526020016000208790806001815401808255809150506001900390600052602060002001600090919091909150555050505b600360008673ffffffffffffffffffffffffffffffffffffffff1673ffffffffffffffffffffffffffffffffffffffff1681526020019081526020016000206000858152602001908152602001600020600201339080600181540180825580915050600190039060005260206000200160009091909190916101000a81548173ffffffffffffffffffffffffffffffffffffffff021916908373ffffffffffffffffffffffffffffffffffffffff160217905550600360008673ffffffffffffffffffffffffffffffffffffffff1673ffffffffffffffffffffffffffffffffffffffff16815260200190815260200160002060008581526020019081526020016000206003016000815480929190610d9490611ffd565b91905055505050505050565b610da86115f9565b600360008473ffffffffffffffffffffffffffffffffffffffff1673ffffffffffffffffffffffffffffffffffffffff1681526020019081526020016000206000838152602001908152602001600020604051806080016040529081600082018054610e1390611d7a565b80601f0160208091040260200160405190810160405280929190818152602001828054610e3f90611d7a565b8015610e8c5780601f10610e6157610100808354040283529160200191610e8c565b820191906000526020600020905b815481529060010190602001808311610e6f57829003601f168201915b505050505081526020016001820160009054906101000a900473ffffffffffffffffffffffffffffffffffffffff1673ffffffffffffffffffffffffffffffffffffffff1673ffffffffffffffffffffffffffffffffffffffff16815260200160028201805480602002602001604051908101604052809291908181526020018280548015610f7057602002820191906000526020600020905b8160009054906101000a900473ffffffffffffffffffffffffffffffffffffffff1673ffffffffffffffffffffffffffffffffffffffff1681526020019060010190808311610f26575b50505050508152602001600382015481525050905092915050565b600060019054906101000a900473ffffffffffffffffffffffffffffffffffffffff1673ffffffffffffffffffffffffffffffffffffffff166391d14854600060019054906101000a900473ffffffffffffffffffffffffffffffffffffffff1673ffffffffffffffffffffffffffffffffffffffff1663b691164f6040518163ffffffff1660e01b81526004016110229061230f565b602060405180830381865afa15801561103f573d6000803e3d6000fd5b505050506040513d601f19601f820116820180604052508101906110639190612344565b336040518363ffffffff1660e01b8152600401611081929190612380565b602060405180830381865afa15801561109e573d6000803e3d6000fd5b505050506040513d601f19601f820116820180604052508101906110c291906123a9565b611101576040517f08c379a00000000000000000000000000000000000000000000000000000000081526004016110f890612422565b60405180910390fd5b80156111145761110f6111c1565b61111d565b61111c611223565b5b50565b60008160405160200161113391906124ba565b604051602081830303815290604052805190602001209050919050565b600080600061115f8585611285565b9150915061116c816112d6565b819250505092915050565b61117f6105ab565b156111bf576040517f08c379a00000000000000000000000000000000000000000000000000000000081526004016111b69061252c565b60405180910390fd5b565b6111c9611177565b60016000806101000a81548160ff0219169083151502179055507f62e78cea01bee320cd4e420270b5ea74000d11b0c9f74754ebdbfc544b05a25861120c61143c565b60405161121991906118d7565b60405180910390a1565b61122b611444565b60008060006101000a81548160ff0219169083151502179055507f5db9ee0a495bf2e6ff9c91a7834c1ba4fdd244a5e8aa4e537bd38aeae4b073aa61126e61143c565b60405161127b91906118d7565b60405180910390a1565b60008060418351036112c65760008060006020860151925060408601519150606086015160001a90506112ba8782858561148d565b945094505050506112cf565b60006002915091505b9250929050565b600060048111156112ea576112e961254c565b5b8160048111156112fd576112fc61254c565b5b031561143957600160048111156113175761131661254c565b5b81600481111561132a5761132961254c565b5b0361136a576040517f08c379a0000000000000000000000000000000000000000000000000000000008152600401611361906125c7565b60405180910390fd5b6002600481111561137e5761137d61254c565b5b8160048111156113915761139061254c565b5b036113d1576040517f08c379a00000000000000000000000000000000000000000000000000000000081526004016113c890612633565b60405180910390fd5b600360048111156113e5576113e461254c565b5b8160048111156113f8576113f761254c565b5b03611438576040517f08c379a000000000000000000000000000000000000000000000000000000000815260040161142f906126c5565b60405180910390fd5b5b50565b600033905090565b61144c6105ab565b61148b576040517f08c379a000000000000000000000000000000000000000000000000000000000815260040161148290612731565b60405180910390fd5b565b6000807f7fffffffffffffffffffffffffffffff5d576e7357a4501ddfe92f46681b20a08360001c11156114c8576000600391509150611566565b6000600187878787604051600081526020016040526040516114ed949392919061276d565b6020604051602081039080840390855afa15801561150f573d6000803e3d6000fd5b505050602060405103519050600073ffffffffffffffffffffffffffffffffffffffff168173ffffffffffffffffffffffffffffffffffffffff160361155d57600060019250925050611566565b80600092509250505b94509492505050565b8280548282559060005260206000209081019282156115e8579160200282015b828111156115e75782518260006101000a81548173ffffffffffffffffffffffffffffffffffffffff021916908373ffffffffffffffffffffffffffffffffffffffff1602179055509160200191906001019061158f565b5b5090506115f59190611637565b5090565b604051806080016040528060608152602001600073ffffffffffffffffffffffffffffffffffffffff16815260200160608152602001600081525090565b5b80821115611650576000816000905550600101611638565b5090565b6000604051905090565b600080fd5b600080fd5b6000819050919050565b61167b81611668565b811461168657600080fd5b50565b60008135905061169881611672565b92915050565b600080fd5b600080fd5b6000601f19601f8301169050919050565b7f4e487b7100000000000000000000000000000000000000000000000000000000600052604160045260246000fd5b6116f1826116a8565b810181811067ffffffffffffffff821117156117105761170f6116b9565b5b80604052505050565b6000611723611654565b905061172f82826116e8565b919050565b600067ffffffffffffffff82111561174f5761174e6116b9565b5b611758826116a8565b9050602081019050919050565b82818337600083830152505050565b600061178761178284611734565b611719565b9050828152602081018484840111156117a3576117a26116a3565b5b6117ae848285611765565b509392505050565b600082601f8301126117cb576117ca61169e565b5b81356117db848260208601611774565b91505092915050565b600080604083850312156117fb576117fa61165e565b5b600061180985828601611689565b925050602083013567ffffffffffffffff81111561182a57611829611663565b5b611836858286016117b6565b9150509250929050565b60007fffffffff0000000000000000000000000000000000000000000000000000000082169050919050565b61187581611840565b82525050565b6000602082019050611890600083018461186c565b92915050565b600073ffffffffffffffffffffffffffffffffffffffff82169050919050565b60006118c182611896565b9050919050565b6118d1816118b6565b82525050565b60006020820190506118ec60008301846118c8565b92915050565b60008115159050919050565b611907816118f2565b82525050565b600060208201905061192260008301846118fe565b92915050565b611931816118b6565b811461193c57600080fd5b50565b60008135905061194e81611928565b92915050565b60006020828403121561196a5761196961165e565b5b60006119788482850161193f565b91505092915050565b600081519050919050565b600082825260208201905092915050565b6000819050602082019050919050565b6119b681611668565b82525050565b60006119c883836119ad565b60208301905092915050565b6000602082019050919050565b60006119ec82611981565b6119f6818561198c565b9350611a018361199d565b8060005b83811015611a32578151611a1988826119bc565b9750611a24836119d4565b925050600181019050611a05565b5085935050505092915050565b60006020820190508181036000830152611a5981846119e1565b905092915050565b600080600060608486031215611a7a57611a7961165e565b5b6000611a888682870161193f565b9350506020611a9986828701611689565b925050604084013567ffffffffffffffff811115611aba57611ab9611663565b5b611ac6868287016117b6565b9150509250925092565b60008060408385031215611ae757611ae661165e565b5b6000611af58582860161193f565b9250506020611b0685828601611689565b9150509250929050565b600081519050919050565b600082825260208201905092915050565b60005b83811015611b4a578082015181840152602081019050611b2f565b60008484015250505050565b6000611b6182611b10565b611b6b8185611b1b565b9350611b7b818560208601611b2c565b611b84816116a8565b840191505092915050565b611b98816118b6565b82525050565b600081519050919050565b600082825260208201905092915050565b6000819050602082019050919050565b6000611bd68383611b8f565b60208301905092915050565b6000602082019050919050565b6000611bfa82611b9e565b611c048185611ba9565b9350611c0f83611bba565b8060005b83811015611c40578151611c278882611bca565b9750611c3283611be2565b925050600181019050611c13565b5085935050505092915050565b6000819050919050565b611c6081611c4d565b82525050565b60006080830160008301518482036000860152611c838282611b56565b9150506020830151611c986020860182611b8f565b5060408301518482036040860152611cb08282611bef565b9150506060830151611cc56060860182611c57565b508091505092915050565b60006020820190508181036000830152611cea8184611c66565b905092915050565b611cfb816118f2565b8114611d0657600080fd5b50565b600081359050611d1881611cf2565b92915050565b600060208284031215611d3457611d3361165e565b5b6000611d4284828501611d09565b91505092915050565b7f4e487b7100000000000000000000000000000000000000000000000000000000600052602260045260246000fd5b60006002820490506001821680611d9257607f821691505b602082108103611da557611da4611d4b565b5b50919050565b7f4e487b7100000000000000000000000000000000000000000000000000000000600052601160045260246000fd5b6000611de582611c4d565b9150611df083611c4d565b9250828203905081811115611e0857611e07611dab565b5b92915050565b7f4e487b7100000000000000000000000000000000000000000000000000000000600052603260045260246000fd5b611e4681611c4d565b8114611e5157600080fd5b50565b600081519050611e6381611e3d565b92915050565b600060208284031215611e7f57611e7e61165e565b5b6000611e8d84828501611e54565b91505092915050565b6000604082019050611eab60008301856118c8565b611eb860208301846118c8565b9392505050565b600081519050611ece81611cf2565b92915050565b60008060408385031215611eeb57611eea61165e565b5b6000611ef985828601611ebf565b9250506020611f0a85828601611ebf565b9150509250929050565b600082825260208201905092915050565b7f216d656d62657200000000000000000000000000000000000000000000000000600082015250565b6000611f5b600783611f14565b9150611f6682611f25565b602082019050919050565b60006020820190508181036000830152611f8a81611f4e565b9050919050565b7f416c7265616479207369676e6564000000000000000000000000000000000000600082015250565b6000611fc7600e83611f14565b9150611fd282611f91565b602082019050919050565b60006020820190508181036000830152611ff681611fba565b9050919050565b600061200882611c4d565b91507fffffffffffffffffffffffffffffffffffffffffffffffffffffffffffffffff820361203a57612039611dab565b5b600182019050919050565b60008190508160005260206000209050919050565b60006020601f8301049050919050565b600082821b905092915050565b6000600883026120a77fffffffffffffffffffffffffffffffffffffffffffffffffffffffffffffffff8261206a565b6120b1868361206a565b95508019841693508086168417925050509392505050565b6000819050919050565b60006120ee6120e96120e484611c4d565b6120c9565b611c4d565b9050919050565b6000819050919050565b612108836120d3565b61211c612114826120f5565b848454612077565b825550505050565b600090565b612131612124565b61213c8184846120ff565b505050565b5b8181101561216057612155600082612129565b600181019050612142565b5050565b601f8211156121a55761217681612045565b61217f8461205a565b8101602085101561218e578190505b6121a261219a8561205a565b830182612141565b50505b505050565b600082821c905092915050565b60006121c8600019846008026121aa565b1980831691505092915050565b60006121e183836121b7565b9150826002028217905092915050565b6121fa82611b10565b67ffffffffffffffff811115612213576122126116b9565b5b61221d8254611d7a565b612228828285612164565b600060209050601f83116001811461225b5760008415612249578287015190505b61225385826121d5565b8655506122bb565b601f19841661226986612045565b60005b828110156122915784890151825560018201915060208501945060208101905061226c565b868310156122ae57848901516122aa601f8916826121b7565b8355505b6001600288020188555050505b505050505050565b7f44454641554c545f41444d494e5f524f4c450000000000000000000000000000600082015250565b60006122f9601283611f14565b9150612304826122c3565b602082019050919050565b60006020820190508181036000830152612328816122ec565b9050919050565b60008151905061233e81611672565b92915050565b60006020828403121561235a5761235961165e565b5b60006123688482850161232f565b91505092915050565b61237a81611668565b82525050565b60006040820190506123956000830185612371565b6123a260208301846118c8565b9392505050565b6000602082840312156123bf576123be61165e565b5b60006123cd84828501611ebf565b91505092915050565b7f2161757468000000000000000000000000000000000000000000000000000000600082015250565b600061240c600583611f14565b9150612417826123d6565b602082019050919050565b6000602082019050818103600083015261243b816123ff565b9050919050565b600081905092915050565b7f19457468657265756d205369676e6564204d6573736167653a0a333200000000600082015250565b6000612483601c83612442565b915061248e8261244d565b601c82019050919050565b6000819050919050565b6124b46124af82611668565b612499565b82525050565b60006124c582612476565b91506124d182846124a3565b60208201915081905092915050565b7f5061757361626c653a2070617573656400000000000000000000000000000000600082015250565b6000612516601083611f14565b9150612521826124e0565b602082019050919050565b6000602082019050818103600083015261254581612509565b9050919050565b7f4e487b7100000000000000000000000000000000000000000000000000000000600052602160045260246000fd5b7f45434453413a20696e76616c6964207369676e61747572650000000000000000600082015250565b60006125b1601883611f14565b91506125bc8261257b565b602082019050919050565b600060208201905081810360008301526125e0816125a4565b9050919050565b7f45434453413a20696e76616c6964207369676e6174757265206c656e67746800600082015250565b600061261d601f83611f14565b9150612628826125e7565b602082019050919050565b6000602082019050818103600083015261264c81612610565b9050919050565b7f45434453413a20696e76616c6964207369676e6174757265202773272076616c60008201527f7565000000000000000000000000000000000000000000000000000000000000602082015250565b60006126af602283611f14565b91506126ba82612653565b604082019050919050565b600060208201905081810360008301526126de816126a2565b9050919050565b7f5061757361626c653a206e6f7420706175736564000000000000000000000000600082015250565b600061271b601483611f14565b9150612726826126e5565b602082019050919050565b6000602082019050818103600083015261274a8161270e565b9050919050565b600060ff82169050919050565b61276781612751565b82525050565b60006080820190506127826000830187612371565b61278f602083018661275e565b61279c6040830185612371565b6127a96060830184612371565b9594505050505056fea2646970667358221220ac4cb6a59e0b8f92cb31b1414c5b6af809feaac6c85008b3b9c3ba163318664864736f6c63430008120033",
  "linkReferences": {},
  "deployedLinkReferences": {}
}