{
  "_format": "hh-sol-artifact-1",
  "contractName": "MockAdmin",
  "sourceName": "contracts/test-contracts/MockAdmin.sol",
  "abi": [
    {
      "anonymous": false,
      "inputs": [
        {
          "indexed": true,
          "internalType": "address",
          "name": "previousOwner",
          "type": "address"
        },
        {
          "indexed": true,
          "internalType": "address",
          "name": "newOwner",
          "type": "address"
        }
      ],
      "name": "OwnershipTransferred",
      "type": "event"
    },
    {
      "inputs": [],
      "name": "owner",
      "outputs": [
        {
          "internalType": "address",
          "name": "",
          "type": "address"
        }
      ],
      "stateMutability": "view",
      "type": "function"
    },
    {
      "inputs": [],
      "name": "renounceOwnership",
      "outputs": [],
      "stateMutability": "nonpayable",
      "type": "function"
    },
    {
      "inputs": [
        {
          "internalType": "address",
          "name": "newOwner",
          "type": "address"
        }
      ],
      "name": "transferOwnership",
      "outputs": [],
      "stateMutability": "nonpayable",
      "type": "function"
    },
    {
      "inputs": [
        {
          "internalType": "address",
          "name": "yieldSyncV1VaultAddress",
          "type": "address"
        },
        {
          "internalType": "uint256",
          "name": "withdrawalRequestId",
          "type": "uint256"
        },
        {
          "internalType": "bool",
          "name": "arithmaticSign",
          "type": "bool"
        },
        {
          "internalType": "uint256",
          "name": "timeInSeconds",
          "type": "uint256"
        }
      ],
      "name": "updateWithdrawalRequestLatestRelevantApproveVoteTime",
      "outputs": [],
      "stateMutability": "nonpayable",
      "type": "function"
    }
  ],
  "bytecode": "0x608060405234801561001057600080fd5b5061002d61002261003260201b60201c565b61003a60201b60201c565b6100fe565b600033905090565b60008060009054906101000a900473ffffffffffffffffffffffffffffffffffffffff169050816000806101000a81548173ffffffffffffffffffffffffffffffffffffffff021916908373ffffffffffffffffffffffffffffffffffffffff1602179055508173ffffffffffffffffffffffffffffffffffffffff168173ffffffffffffffffffffffffffffffffffffffff167f8be0079c531659141344cd1fd0a4f28419497f9722a3daafe3b4186f6b6457e060405160405180910390a35050565b610e898061010d6000396000f3fe608060405234801561001057600080fd5b506004361061004b5760003560e01c8062e2653914610050578063715018a61461006c5780638da5cb5b14610076578063f2fde38b14610094575b600080fd5b61006a600480360381019061006591906105de565b6100b0565b005b6100746102f4565b005b61007e610308565b60405161008b9190610654565b60405180910390f35b6100ae60048036038101906100a9919061066f565b610331565b005b8383600073ffffffffffffffffffffffffffffffffffffffff168273ffffffffffffffffffffffffffffffffffffffff1663c32e9e83836040518263ffffffff1660e01b815260040161010391906106ab565b600060405180830381865afa158015610120573d6000803e3d6000fd5b505050506040513d6000823e3d601f19601f8201168201806040525081019061014991906109a6565b6060015173ffffffffffffffffffffffffffffffffffffffff16036101a3576040517f08c379a000000000000000000000000000000000000000000000000000000000815260040161019a90610a4c565b60405180910390fd5b60008673ffffffffffffffffffffffffffffffffffffffff1663c32e9e83876040518263ffffffff1660e01b81526004016101de91906106ab565b600060405180830381865afa1580156101fb573d6000803e3d6000fd5b505050506040513d6000823e3d601f19601f8201168201806040525081019061022491906109a6565b90508415610257576001846102399190610a9b565b816101400181815161024b9190610add565b9150818152505061027e565b6001846102649190610a9b565b81610140018181516102769190610b11565b915081815250505b8673ffffffffffffffffffffffffffffffffffffffff1663ed03a8a787836040518363ffffffff1660e01b81526004016102b9929190610d25565b600060405180830381600087803b1580156102d357600080fd5b505af11580156102e7573d6000803e3d6000fd5b5050505050505050505050565b6102fc6103b4565b6103066000610432565b565b60008060009054906101000a900473ffffffffffffffffffffffffffffffffffffffff16905090565b6103396103b4565b600073ffffffffffffffffffffffffffffffffffffffff168173ffffffffffffffffffffffffffffffffffffffff16036103a8576040517f08c379a000000000000000000000000000000000000000000000000000000000815260040161039f90610dc7565b60405180910390fd5b6103b181610432565b50565b6103bc6104f6565b73ffffffffffffffffffffffffffffffffffffffff166103da610308565b73ffffffffffffffffffffffffffffffffffffffff1614610430576040517f08c379a000000000000000000000000000000000000000000000000000000000815260040161042790610e33565b60405180910390fd5b565b60008060009054906101000a900473ffffffffffffffffffffffffffffffffffffffff169050816000806101000a81548173ffffffffffffffffffffffffffffffffffffffff021916908373ffffffffffffffffffffffffffffffffffffffff1602179055508173ffffffffffffffffffffffffffffffffffffffff168173ffffffffffffffffffffffffffffffffffffffff167f8be0079c531659141344cd1fd0a4f28419497f9722a3daafe3b4186f6b6457e060405160405180910390a35050565b600033905090565b6000604051905090565b600080fd5b600080fd5b600073ffffffffffffffffffffffffffffffffffffffff82169050919050565b600061053d82610512565b9050919050565b61054d81610532565b811461055857600080fd5b50565b60008135905061056a81610544565b92915050565b6000819050919050565b61058381610570565b811461058e57600080fd5b50565b6000813590506105a08161057a565b92915050565b60008115159050919050565b6105bb816105a6565b81146105c657600080fd5b50565b6000813590506105d8816105b2565b92915050565b600080600080608085870312156105f8576105f7610508565b5b60006106068782880161055b565b945050602061061787828801610591565b9350506040610628878288016105c9565b925050606061063987828801610591565b91505092959194509250565b61064e81610532565b82525050565b60006020820190506106696000830184610645565b92915050565b60006020828403121561068557610684610508565b5b60006106938482850161055b565b91505092915050565b6106a581610570565b82525050565b60006020820190506106c0600083018461069c565b92915050565b600080fd5b6000601f19601f8301169050919050565b7f4e487b7100000000000000000000000000000000000000000000000000000000600052604160045260246000fd5b610714826106cb565b810181811067ffffffffffffffff82111715610733576107326106dc565b5b80604052505050565b60006107466104fe565b9050610752828261070b565b919050565b600080fd5b60008151905061076b816105b2565b92915050565b60008151905061078081610544565b92915050565b6000815190506107958161057a565b92915050565b600080fd5b600067ffffffffffffffff8211156107bb576107ba6106dc565b5b602082029050602081019050919050565b600080fd5b60006107e46107df846107a0565b61073c565b90508083825260208201905060208402830185811115610807576108066107cc565b5b835b81811015610830578061081c8882610771565b845260208401935050602081019050610809565b5050509392505050565b600082601f83011261084f5761084e61079b565b5b815161085f8482602086016107d1565b91505092915050565b6000610180828403121561087f5761087e6106c6565b5b61088a61018061073c565b9050600061089a8482850161075c565b60008301525060206108ae8482850161075c565b60208301525060406108c28482850161075c565b60408301525060606108d684828501610771565b60608301525060806108ea84828501610771565b60808301525060a06108fe84828501610771565b60a08301525060c061091284828501610786565b60c08301525060e061092684828501610786565b60e08301525061010061093b84828501610786565b6101008301525061012061095184828501610786565b6101208301525061014061096784828501610786565b6101408301525061016082015167ffffffffffffffff81111561098d5761098c610757565b5b6109998482850161083a565b6101608301525092915050565b6000602082840312156109bc576109bb610508565b5b600082015167ffffffffffffffff8111156109da576109d961050d565b5b6109e684828501610868565b91505092915050565b600082825260208201905092915050565b7f4e6f205769746864726177616c5265717565737420666f756e64000000000000600082015250565b6000610a36601a836109ef565b9150610a4182610a00565b602082019050919050565b60006020820190508181036000830152610a6581610a29565b9050919050565b7f4e487b7100000000000000000000000000000000000000000000000000000000600052601160045260246000fd5b6000610aa682610570565b9150610ab183610570565b9250828202610abf81610570565b91508282048414831517610ad657610ad5610a6c565b5b5092915050565b6000610ae882610570565b9150610af383610570565b9250828201905080821115610b0b57610b0a610a6c565b5b92915050565b6000610b1c82610570565b9150610b2783610570565b9250828203905081811115610b3f57610b3e610a6c565b5b92915050565b610b4e816105a6565b82525050565b610b5d81610532565b82525050565b610b6c81610570565b82525050565b600081519050919050565b600082825260208201905092915050565b6000819050602082019050919050565b6000610baa8383610b54565b60208301905092915050565b6000602082019050919050565b6000610bce82610b72565b610bd88185610b7d565b9350610be383610b8e565b8060005b83811015610c14578151610bfb8882610b9e565b9750610c0683610bb6565b925050600181019050610be7565b5085935050505092915050565b600061018083016000830151610c3a6000860182610b45565b506020830151610c4d6020860182610b45565b506040830151610c606040860182610b45565b506060830151610c736060860182610b54565b506080830151610c866080860182610b54565b5060a0830151610c9960a0860182610b54565b5060c0830151610cac60c0860182610b63565b5060e0830151610cbf60e0860182610b63565b50610100830151610cd4610100860182610b63565b50610120830151610ce9610120860182610b63565b50610140830151610cfe610140860182610b63565b50610160830151848203610160860152610d188282610bc3565b9150508091505092915050565b6000604082019050610d3a600083018561069c565b8181036020830152610d4c8184610c21565b90509392505050565b7f4f776e61626c653a206e6577206f776e657220697320746865207a65726f206160008201527f6464726573730000000000000000000000000000000000000000000000000000602082015250565b6000610db16026836109ef565b9150610dbc82610d55565b604082019050919050565b60006020820190508181036000830152610de081610da4565b9050919050565b7f4f776e61626c653a2063616c6c6572206973206e6f7420746865206f776e6572600082015250565b6000610e1d6020836109ef565b9150610e2882610de7565b602082019050919050565b60006020820190508181036000830152610e4c81610e10565b905091905056fea264697066735822122067c53d14015df75a3db1d9053297a096256c4a3937332ca941f4770be5eff7ac64736f6c63430008120033",
  "linkReferences": {},
  "deployedLinkReferences": {}
}