{
  "_format": "hh-sol-artifact-1",
  "contractName": "MockYieldSyncGovernance",
  "sourceName": "contracts/test-contracts/MockYieldSyncGovernance.sol",
  "abi": [
    {
      "anonymous": false,
      "inputs": [
        {
          "indexed": true,
          "internalType": "bytes32",
          "name": "role",
          "type": "bytes32"
        },
        {
          "indexed": true,
          "internalType": "bytes32",
          "name": "previousAdminRole",
          "type": "bytes32"
        },
        {
          "indexed": true,
          "internalType": "bytes32",
          "name": "newAdminRole",
          "type": "bytes32"
        }
      ],
      "name": "RoleAdminChanged",
      "type": "event"
    },
    {
      "anonymous": false,
      "inputs": [
        {
          "indexed": true,
          "internalType": "bytes32",
          "name": "role",
          "type": "bytes32"
        },
        {
          "indexed": true,
          "internalType": "address",
          "name": "account",
          "type": "address"
        },
        {
          "indexed": true,
          "internalType": "address",
          "name": "sender",
          "type": "address"
        }
      ],
      "name": "RoleGranted",
      "type": "event"
    },
    {
      "anonymous": false,
      "inputs": [
        {
          "indexed": true,
          "internalType": "bytes32",
          "name": "role",
          "type": "bytes32"
        },
        {
          "indexed": true,
          "internalType": "address",
          "name": "account",
          "type": "address"
        },
        {
          "indexed": true,
          "internalType": "address",
          "name": "sender",
          "type": "address"
        }
      ],
      "name": "RoleRevoked",
      "type": "event"
    },
    {
      "inputs": [],
      "name": "DEFAULT_ADMIN_ROLE",
      "outputs": [
        {
          "internalType": "bytes32",
          "name": "",
          "type": "bytes32"
        }
      ],
      "stateMutability": "view",
      "type": "function"
    },
    {
      "inputs": [
        {
          "internalType": "string",
          "name": "role",
          "type": "string"
        }
      ],
      "name": "addRole_roleHash",
      "outputs": [],
      "stateMutability": "nonpayable",
      "type": "function"
    },
    {
      "inputs": [
        {
          "internalType": "bytes32",
          "name": "role",
          "type": "bytes32"
        }
      ],
      "name": "getRoleAdmin",
      "outputs": [
        {
          "internalType": "bytes32",
          "name": "",
          "type": "bytes32"
        }
      ],
      "stateMutability": "view",
      "type": "function"
    },
    {
      "inputs": [
        {
          "internalType": "bytes32",
          "name": "role",
          "type": "bytes32"
        },
        {
          "internalType": "uint256",
          "name": "index",
          "type": "uint256"
        }
      ],
      "name": "getRoleMember",
      "outputs": [
        {
          "internalType": "address",
          "name": "",
          "type": "address"
        }
      ],
      "stateMutability": "view",
      "type": "function"
    },
    {
      "inputs": [
        {
          "internalType": "bytes32",
          "name": "role",
          "type": "bytes32"
        }
      ],
      "name": "getRoleMemberCount",
      "outputs": [
        {
          "internalType": "uint256",
          "name": "",
          "type": "uint256"
        }
      ],
      "stateMutability": "view",
      "type": "function"
    },
    {
      "inputs": [
        {
          "internalType": "bytes32",
          "name": "role",
          "type": "bytes32"
        },
        {
          "internalType": "address",
          "name": "account",
          "type": "address"
        }
      ],
      "name": "grantRole",
      "outputs": [],
      "stateMutability": "nonpayable",
      "type": "function"
    },
    {
      "inputs": [
        {
          "internalType": "bytes32",
          "name": "role",
          "type": "bytes32"
        },
        {
          "internalType": "address",
          "name": "account",
          "type": "address"
        }
      ],
      "name": "hasRole",
      "outputs": [
        {
          "internalType": "bool",
          "name": "",
          "type": "bool"
        }
      ],
      "stateMutability": "view",
      "type": "function"
    },
    {
      "inputs": [
        {
          "internalType": "bytes32",
          "name": "role",
          "type": "bytes32"
        },
        {
          "internalType": "address",
          "name": "account",
          "type": "address"
        }
      ],
      "name": "renounceRole",
      "outputs": [],
      "stateMutability": "nonpayable",
      "type": "function"
    },
    {
      "inputs": [
        {
          "internalType": "bytes32",
          "name": "role",
          "type": "bytes32"
        },
        {
          "internalType": "address",
          "name": "account",
          "type": "address"
        }
      ],
      "name": "revokeRole",
      "outputs": [],
      "stateMutability": "nonpayable",
      "type": "function"
    },
    {
      "inputs": [
        {
          "internalType": "string",
          "name": "role",
          "type": "string"
        }
      ],
      "name": "role_roleHash",
      "outputs": [
        {
          "internalType": "bytes32",
          "name": "roleHash",
          "type": "bytes32"
        }
      ],
      "stateMutability": "view",
      "type": "function"
    },
    {
      "inputs": [
        {
          "internalType": "bytes4",
          "name": "interfaceId",
          "type": "bytes4"
        }
      ],
      "name": "supportsInterface",
      "outputs": [
        {
          "internalType": "bool",
          "name": "",
          "type": "bool"
        }
      ],
      "stateMutability": "view",
      "type": "function"
    }
  ],
  "bytecode": "0x60806040523480156200001157600080fd5b506000801b600260405162000026906200036e565b9081526020016040518091039020819055506200007760026040516200004c906200036e565b9081526020016040518091039020546200006b6200007d60201b60201c565b6200008560201b60201c565b62000385565b600033905090565b6200009782826200009b60201b60201c565b5050565b620000b28282620000e360201b6200054a1760201c565b620000de8160016000858152602001908152602001600020620001d460201b6200062a1790919060201c565b505050565b620000f582826200020c60201b60201c565b620001d057600160008084815260200190815260200160002060000160008373ffffffffffffffffffffffffffffffffffffffff1673ffffffffffffffffffffffffffffffffffffffff16815260200190815260200160002060006101000a81548160ff021916908315150217905550620001756200007d60201b60201c565b73ffffffffffffffffffffffffffffffffffffffff168173ffffffffffffffffffffffffffffffffffffffff16837f2f8788117e7eff1d82e926ec794901d17c78024a50270940304540a733656f0d60405160405180910390a45b5050565b600062000204836000018373ffffffffffffffffffffffffffffffffffffffff1660001b6200027660201b60201c565b905092915050565b600080600084815260200190815260200160002060000160008373ffffffffffffffffffffffffffffffffffffffff1673ffffffffffffffffffffffffffffffffffffffff16815260200190815260200160002060009054906101000a900460ff16905092915050565b60006200028a8383620002f060201b60201c565b620002e5578260000182908060018154018082558091505060019003906000526020600020016000909190919091505582600001805490508360010160008481526020019081526020016000208190555060019050620002ea565b600090505b92915050565b600080836001016000848152602001908152602001600020541415905092915050565b600081905092915050565b7f44454641554c545f41444d494e5f524f4c450000000000000000000000000000600082015250565b60006200035660128362000313565b915062000363826200031e565b601282019050919050565b60006200037b8262000347565b9150819050919050565b61173c80620003956000396000f3fe608060405234801561001057600080fd5b50600436106100a95760003560e01c80639010d07c116100715780639010d07c1461016257806391d1485414610192578063939ac48e146101c2578063a217fddf146101f2578063ca15c87314610210578063d547741f14610240576100a9565b806301ffc9a7146100ae578063248a9ca3146100de5780632f2ff15d1461010e57806336568abe1461012a5780636db6dd3114610146575b600080fd5b6100c860048036038101906100c39190610e9a565b61025c565b6040516100d59190610ee2565b60405180910390f35b6100f860048036038101906100f39190610f33565b6102d6565b6040516101059190610f6f565b60405180910390f35b61012860048036038101906101239190610fe8565b6102f5565b005b610144600480360381019061013f9190610fe8565b610316565b005b610160600480360381019061015b919061116e565b610399565b005b61017c600480360381019061017791906111ed565b610437565b604051610189919061123c565b60405180910390f35b6101ac60048036038101906101a79190610fe8565b610466565b6040516101b99190610ee2565b60405180910390f35b6101dc60048036038101906101d7919061116e565b6104d0565b6040516101e99190610f6f565b60405180910390f35b6101fa6104fe565b6040516102079190610f6f565b60405180910390f35b61022a60048036038101906102259190610f33565b610505565b6040516102379190611266565b60405180910390f35b61025a60048036038101906102559190610fe8565b610529565b005b60007f5a05180f000000000000000000000000000000000000000000000000000000007bffffffffffffffffffffffffffffffffffffffffffffffffffffffff1916827bffffffffffffffffffffffffffffffffffffffffffffffffffffffff191614806102cf57506102ce8261065a565b5b9050919050565b6000806000838152602001908152602001600020600101549050919050565b6102fe826102d6565b610307816106d4565b61031183836106e8565b505050565b61031e61071c565b73ffffffffffffffffffffffffffffffffffffffff168173ffffffffffffffffffffffffffffffffffffffff161461038b576040517f08c379a000000000000000000000000000000000000000000000000000000000815260040161038290611304565b60405180910390fd5b6103958282610724565b5050565b60026040516103a79061137b565b9081526020016040518091039020546103bf816106d4565b816040516020016103d091906113f6565b604051602081830303815290604052805190602001206002836040516103f691906113f6565b90815260200160405180910390208190555061043360028360405161041b91906113f6565b9081526020016040518091039020546000801b610758565b5050565b600061045e82600160008681526020019081526020016000206107b390919063ffffffff16565b905092915050565b600080600084815260200190815260200160002060000160008373ffffffffffffffffffffffffffffffffffffffff1673ffffffffffffffffffffffffffffffffffffffff16815260200190815260200160002060009054906101000a900460ff16905092915050565b6002818051602081018201805184825260208301602085012081835280955050505050506000915090505481565b6000801b81565b6000610522600160008481526020019081526020016000206107cd565b9050919050565b610532826102d6565b61053b816106d4565b6105458383610724565b505050565b6105548282610466565b61062657600160008084815260200190815260200160002060000160008373ffffffffffffffffffffffffffffffffffffffff1673ffffffffffffffffffffffffffffffffffffffff16815260200190815260200160002060006101000a81548160ff0219169083151502179055506105cb61071c565b73ffffffffffffffffffffffffffffffffffffffff168173ffffffffffffffffffffffffffffffffffffffff16837f2f8788117e7eff1d82e926ec794901d17c78024a50270940304540a733656f0d60405160405180910390a45b5050565b6000610652836000018373ffffffffffffffffffffffffffffffffffffffff1660001b6107e2565b905092915050565b60007f7965db0b000000000000000000000000000000000000000000000000000000007bffffffffffffffffffffffffffffffffffffffffffffffffffffffff1916827bffffffffffffffffffffffffffffffffffffffffffffffffffffffff191614806106cd57506106cc82610852565b5b9050919050565b6106e5816106e061071c565b6108bc565b50565b6106f2828261054a565b610717816001600085815260200190815260200160002061062a90919063ffffffff16565b505050565b600033905090565b61072e8282610941565b6107538160016000858152602001908152602001600020610a2290919063ffffffff16565b505050565b6000610763836102d6565b905081600080858152602001908152602001600020600101819055508181847fbd79b86ffe0ab8e8776151514217cd7cacd52c909f66475c3af44e129f0b00ff60405160405180910390a4505050565b60006107c28360000183610a52565b60001c905092915050565b60006107db82600001610a7d565b9050919050565b60006107ee8383610a8e565b61084757826000018290806001815401808255809150506001900390600052602060002001600090919091909150558260000180549050836001016000848152602001908152602001600020819055506001905061084c565b600090505b92915050565b60007f01ffc9a7000000000000000000000000000000000000000000000000000000007bffffffffffffffffffffffffffffffffffffffffffffffffffffffff1916827bffffffffffffffffffffffffffffffffffffffffffffffffffffffff1916149050919050565b6108c68282610466565b61093d576108d381610ab1565b6108e18360001c6020610ade565b6040516020016108f29291906114a5565b6040516020818303038152906040526040517f08c379a00000000000000000000000000000000000000000000000000000000081526004016109349190611518565b60405180910390fd5b5050565b61094b8282610466565b15610a1e57600080600084815260200190815260200160002060000160008373ffffffffffffffffffffffffffffffffffffffff1673ffffffffffffffffffffffffffffffffffffffff16815260200190815260200160002060006101000a81548160ff0219169083151502179055506109c361071c565b73ffffffffffffffffffffffffffffffffffffffff168173ffffffffffffffffffffffffffffffffffffffff16837ff6391f5c32d9c69d2a47ea670b442974b53935d1edc7fd64eb21e047a839171b60405160405180910390a45b5050565b6000610a4a836000018373ffffffffffffffffffffffffffffffffffffffff1660001b610d1a565b905092915050565b6000826000018281548110610a6a57610a6961153a565b5b9060005260206000200154905092915050565b600081600001805490509050919050565b600080836001016000848152602001908152602001600020541415905092915050565b6060610ad78273ffffffffffffffffffffffffffffffffffffffff16601460ff16610ade565b9050919050565b606060006002836002610af19190611598565b610afb91906115da565b67ffffffffffffffff811115610b1457610b13611043565b5b6040519080825280601f01601f191660200182016040528015610b465781602001600182028036833780820191505090505b5090507f300000000000000000000000000000000000000000000000000000000000000081600081518110610b7e57610b7d61153a565b5b60200101907effffffffffffffffffffffffffffffffffffffffffffffffffffffffffffff1916908160001a9053507f780000000000000000000000000000000000000000000000000000000000000081600181518110610be257610be161153a565b5b60200101907effffffffffffffffffffffffffffffffffffffffffffffffffffffffffffff1916908160001a90535060006001846002610c229190611598565b610c2c91906115da565b90505b6001811115610ccc577f3031323334353637383961626364656600000000000000000000000000000000600f861660108110610c6e57610c6d61153a565b5b1a60f81b828281518110610c8557610c8461153a565b5b60200101907effffffffffffffffffffffffffffffffffffffffffffffffffffffffffffff1916908160001a905350600485901c945080610cc59061160e565b9050610c2f565b5060008414610d10576040517f08c379a0000000000000000000000000000000000000000000000000000000008152600401610d0790611683565b60405180910390fd5b8091505092915050565b60008083600101600084815260200190815260200160002054905060008114610e22576000600182610d4c91906116a3565b9050600060018660000180549050610d6491906116a3565b9050818114610dd3576000866000018281548110610d8557610d8461153a565b5b9060005260206000200154905080876000018481548110610da957610da861153a565b5b90600052602060002001819055508387600101600083815260200190815260200160002081905550505b85600001805480610de757610de66116d7565b5b600190038181906000526020600020016000905590558560010160008681526020019081526020016000206000905560019350505050610e28565b60009150505b92915050565b6000604051905090565b600080fd5b600080fd5b60007fffffffff0000000000000000000000000000000000000000000000000000000082169050919050565b610e7781610e42565b8114610e8257600080fd5b50565b600081359050610e9481610e6e565b92915050565b600060208284031215610eb057610eaf610e38565b5b6000610ebe84828501610e85565b91505092915050565b60008115159050919050565b610edc81610ec7565b82525050565b6000602082019050610ef76000830184610ed3565b92915050565b6000819050919050565b610f1081610efd565b8114610f1b57600080fd5b50565b600081359050610f2d81610f07565b92915050565b600060208284031215610f4957610f48610e38565b5b6000610f5784828501610f1e565b91505092915050565b610f6981610efd565b82525050565b6000602082019050610f846000830184610f60565b92915050565b600073ffffffffffffffffffffffffffffffffffffffff82169050919050565b6000610fb582610f8a565b9050919050565b610fc581610faa565b8114610fd057600080fd5b50565b600081359050610fe281610fbc565b92915050565b60008060408385031215610fff57610ffe610e38565b5b600061100d85828601610f1e565b925050602061101e85828601610fd3565b9150509250929050565b600080fd5b600080fd5b6000601f19601f8301169050919050565b7f4e487b7100000000000000000000000000000000000000000000000000000000600052604160045260246000fd5b61107b82611032565b810181811067ffffffffffffffff8211171561109a57611099611043565b5b80604052505050565b60006110ad610e2e565b90506110b98282611072565b919050565b600067ffffffffffffffff8211156110d9576110d8611043565b5b6110e282611032565b9050602081019050919050565b82818337600083830152505050565b600061111161110c846110be565b6110a3565b90508281526020810184848401111561112d5761112c61102d565b5b6111388482856110ef565b509392505050565b600082601f83011261115557611154611028565b5b81356111658482602086016110fe565b91505092915050565b60006020828403121561118457611183610e38565b5b600082013567ffffffffffffffff8111156111a2576111a1610e3d565b5b6111ae84828501611140565b91505092915050565b6000819050919050565b6111ca816111b7565b81146111d557600080fd5b50565b6000813590506111e7816111c1565b92915050565b6000806040838503121561120457611203610e38565b5b600061121285828601610f1e565b9250506020611223858286016111d8565b9150509250929050565b61123681610faa565b82525050565b6000602082019050611251600083018461122d565b92915050565b611260816111b7565b82525050565b600060208201905061127b6000830184611257565b92915050565b600082825260208201905092915050565b7f416363657373436f6e74726f6c3a2063616e206f6e6c792072656e6f756e636560008201527f20726f6c657320666f722073656c660000000000000000000000000000000000602082015250565b60006112ee602f83611281565b91506112f982611292565b604082019050919050565b6000602082019050818103600083015261131d816112e1565b9050919050565b600081905092915050565b7f44454641554c545f41444d494e5f524f4c450000000000000000000000000000600082015250565b6000611365601283611324565b91506113708261132f565b601282019050919050565b600061138682611358565b9150819050919050565b600081519050919050565b60005b838110156113b957808201518184015260208101905061139e565b60008484015250505050565b60006113d082611390565b6113da8185611324565b93506113ea81856020860161139b565b80840191505092915050565b600061140282846113c5565b915081905092915050565b7f416363657373436f6e74726f6c3a206163636f756e7420000000000000000000600082015250565b6000611443601783611324565b915061144e8261140d565b601782019050919050565b7f206973206d697373696e6720726f6c6520000000000000000000000000000000600082015250565b600061148f601183611324565b915061149a82611459565b601182019050919050565b60006114b082611436565b91506114bc82856113c5565b91506114c782611482565b91506114d382846113c5565b91508190509392505050565b60006114ea82611390565b6114f48185611281565b935061150481856020860161139b565b61150d81611032565b840191505092915050565b6000602082019050818103600083015261153281846114df565b905092915050565b7f4e487b7100000000000000000000000000000000000000000000000000000000600052603260045260246000fd5b7f4e487b7100000000000000000000000000000000000000000000000000000000600052601160045260246000fd5b60006115a3826111b7565b91506115ae836111b7565b92508282026115bc816111b7565b915082820484148315176115d3576115d2611569565b5b5092915050565b60006115e5826111b7565b91506115f0836111b7565b925082820190508082111561160857611607611569565b5b92915050565b6000611619826111b7565b91506000820361162c5761162b611569565b5b600182039050919050565b7f537472696e67733a20686578206c656e67746820696e73756666696369656e74600082015250565b600061166d602083611281565b915061167882611637565b602082019050919050565b6000602082019050818103600083015261169c81611660565b9050919050565b60006116ae826111b7565b91506116b9836111b7565b92508282039050818111156116d1576116d0611569565b5b92915050565b7f4e487b7100000000000000000000000000000000000000000000000000000000600052603160045260246000fdfea2646970667358221220a9314c436c62a87bc532380d70ee5d20bbadea22ddd59307233d650f4c3c0b8364736f6c63430008120033",
  "linkReferences": {},
  "deployedLinkReferences": {}
}